{
  "_format": "hh-sol-artifact-1",
  "contractName": "Peaqnames",
  "sourceName": "contracts/Peaqnames.sol",
  "abi": [
    {
      "inputs": [],
      "stateMutability": "nonpayable",
      "type": "constructor"
    },
    {
      "inputs": [],
      "name": "ERC721EnumerableForbiddenBatchMint",
      "type": "error"
    },
    {
      "inputs": [
        {
          "internalType": "address",
          "name": "sender",
          "type": "address"
        },
        {
          "internalType": "uint256",
          "name": "tokenId",
          "type": "uint256"
        },
        {
          "internalType": "address",
          "name": "owner",
          "type": "address"
        }
      ],
      "name": "ERC721IncorrectOwner",
      "type": "error"
    },
    {
      "inputs": [
        {
          "internalType": "address",
          "name": "operator",
          "type": "address"
        },
        {
          "internalType": "uint256",
          "name": "tokenId",
          "type": "uint256"
        }
      ],
      "name": "ERC721InsufficientApproval",
      "type": "error"
    },
    {
      "inputs": [
        {
          "internalType": "address",
          "name": "approver",
          "type": "address"
        }
      ],
      "name": "ERC721InvalidApprover",
      "type": "error"
    },
    {
      "inputs": [
        {
          "internalType": "address",
          "name": "operator",
          "type": "address"
        }
      ],
      "name": "ERC721InvalidOperator",
      "type": "error"
    },
    {
      "inputs": [
        {
          "internalType": "address",
          "name": "owner",
          "type": "address"
        }
      ],
      "name": "ERC721InvalidOwner",
      "type": "error"
    },
    {
      "inputs": [
        {
          "internalType": "address",
          "name": "receiver",
          "type": "address"
        }
      ],
      "name": "ERC721InvalidReceiver",
      "type": "error"
    },
    {
      "inputs": [
        {
          "internalType": "address",
          "name": "sender",
          "type": "address"
        }
      ],
      "name": "ERC721InvalidSender",
      "type": "error"
    },
    {
      "inputs": [
        {
          "internalType": "uint256",
          "name": "tokenId",
          "type": "uint256"
        }
      ],
      "name": "ERC721NonexistentToken",
      "type": "error"
    },
    {
      "inputs": [
        {
          "internalType": "address",
          "name": "owner",
          "type": "address"
        },
        {
          "internalType": "uint256",
          "name": "index",
          "type": "uint256"
        }
      ],
      "name": "ERC721OutOfBoundsIndex",
      "type": "error"
    },
    {
      "inputs": [],
      "name": "EnforcedPause",
      "type": "error"
    },
    {
      "inputs": [],
      "name": "ExpectedPause",
      "type": "error"
    },
    {
      "inputs": [
        {
          "internalType": "address",
          "name": "owner",
          "type": "address"
        }
      ],
      "name": "OwnableInvalidOwner",
      "type": "error"
    },
    {
      "inputs": [
        {
          "internalType": "address",
          "name": "account",
          "type": "address"
        }
      ],
      "name": "OwnableUnauthorizedAccount",
      "type": "error"
    },
    {
      "anonymous": false,
      "inputs": [
        {
          "indexed": true,
          "internalType": "address",
          "name": "user",
          "type": "address"
        }
      ],
      "name": "AddedToAllowlist",
      "type": "event"
    },
    {
      "anonymous": false,
      "inputs": [
        {
          "indexed": true,
          "internalType": "address",
          "name": "owner",
          "type": "address"
        },
        {
          "indexed": true,
          "internalType": "address",
          "name": "approved",
          "type": "address"
        },
        {
          "indexed": true,
          "internalType": "uint256",
          "name": "tokenId",
          "type": "uint256"
        }
      ],
      "name": "Approval",
      "type": "event"
    },
    {
      "anonymous": false,
      "inputs": [
        {
          "indexed": true,
          "internalType": "address",
          "name": "owner",
          "type": "address"
        },
        {
          "indexed": true,
          "internalType": "address",
          "name": "operator",
          "type": "address"
        },
        {
          "indexed": false,
          "internalType": "bool",
          "name": "approved",
          "type": "bool"
        }
      ],
      "name": "ApprovalForAll",
      "type": "event"
    },
    {
      "anonymous": false,
      "inputs": [
        {
          "indexed": false,
          "internalType": "uint256",
          "name": "_fromTokenId",
          "type": "uint256"
        },
        {
          "indexed": false,
          "internalType": "uint256",
          "name": "_toTokenId",
          "type": "uint256"
        }
      ],
      "name": "BatchMetadataUpdate",
      "type": "event"
    },
    {
      "anonymous": false,
      "inputs": [
        {
          "indexed": false,
          "internalType": "bool",
          "name": "status",
          "type": "bool"
        }
      ],
      "name": "EarlyMintActivated",
      "type": "event"
    },
    {
      "anonymous": false,
      "inputs": [
        {
          "indexed": false,
          "internalType": "uint256",
          "name": "newFee",
          "type": "uint256"
        }
      ],
      "name": "FeeUpdated",
      "type": "event"
    },
    {
      "anonymous": false,
      "inputs": [
        {
          "indexed": false,
          "internalType": "uint256",
          "name": "_tokenId",
          "type": "uint256"
        }
      ],
      "name": "MetadataUpdate",
      "type": "event"
    },
    {
      "anonymous": false,
      "inputs": [
        {
          "indexed": true,
          "internalType": "address",
          "name": "renter",
          "type": "address"
        },
        {
          "indexed": true,
          "internalType": "uint256",
          "name": "tokenId",
          "type": "uint256"
        },
        {
          "indexed": false,
          "internalType": "string",
          "name": "name",
          "type": "string"
        },
        {
          "indexed": false,
          "internalType": "uint256",
          "name": "expiration",
          "type": "uint256"
        }
      ],
      "name": "NameMinted",
      "type": "event"
    },
    {
      "anonymous": false,
      "inputs": [
        {
          "indexed": true,
          "internalType": "address",
          "name": "recipient",
          "type": "address"
        },
        {
          "indexed": true,
          "internalType": "uint256",
          "name": "tokenId",
          "type": "uint256"
        },
        {
          "indexed": false,
          "internalType": "string",
          "name": "name",
          "type": "string"
        },
        {
          "indexed": false,
          "internalType": "uint256",
          "name": "expiration",
          "type": "uint256"
        }
      ],
      "name": "NameMintedByOwner",
      "type": "event"
    },
    {
      "anonymous": false,
      "inputs": [
        {
          "indexed": true,
          "internalType": "address",
          "name": "previousOwner",
          "type": "address"
        },
        {
          "indexed": true,
          "internalType": "address",
          "name": "newOwner",
          "type": "address"
        }
      ],
      "name": "OwnershipTransferred",
      "type": "event"
    },
    {
      "anonymous": false,
      "inputs": [
        {
          "indexed": false,
          "internalType": "address",
          "name": "account",
          "type": "address"
        }
      ],
      "name": "Paused",
      "type": "event"
    },
    {
      "anonymous": false,
      "inputs": [
        {
          "indexed": true,
          "internalType": "address",
          "name": "from",
          "type": "address"
        },
        {
          "indexed": true,
          "internalType": "address",
          "name": "to",
          "type": "address"
        },
        {
          "indexed": true,
          "internalType": "uint256",
          "name": "tokenId",
          "type": "uint256"
        }
      ],
      "name": "Transfer",
      "type": "event"
    },
    {
      "anonymous": false,
      "inputs": [
        {
          "indexed": false,
          "internalType": "address",
          "name": "account",
          "type": "address"
        }
      ],
      "name": "Unpaused",
      "type": "event"
    },
    {
      "inputs": [
        {
          "internalType": "address[]",
          "name": "_users",
          "type": "address[]"
        }
      ],
      "name": "addToAllowlist",
      "outputs": [],
      "stateMutability": "nonpayable",
      "type": "function"
    },
    {
      "inputs": [
        {
          "internalType": "address",
          "name": "",
          "type": "address"
        }
      ],
      "name": "allowlist",
      "outputs": [
        {
          "internalType": "bool",
          "name": "",
          "type": "bool"
        }
      ],
      "stateMutability": "view",
      "type": "function"
    },
    {
      "inputs": [
        {
          "internalType": "address",
          "name": "to",
          "type": "address"
        },
        {
          "internalType": "uint256",
          "name": "tokenId",
          "type": "uint256"
        }
      ],
      "name": "approve",
      "outputs": [],
      "stateMutability": "nonpayable",
      "type": "function"
    },
    {
      "inputs": [
        {
          "internalType": "address",
          "name": "owner",
          "type": "address"
        }
      ],
      "name": "balanceOf",
      "outputs": [
        {
          "internalType": "uint256",
          "name": "",
          "type": "uint256"
        }
      ],
      "stateMutability": "view",
      "type": "function"
    },
    {
      "inputs": [
        {
          "internalType": "string",
          "name": "_name",
          "type": "string"
        },
        {
          "internalType": "uint256",
          "name": "_months",
          "type": "uint256"
        },
        {
          "internalType": "string",
          "name": "_uri",
          "type": "string"
        }
      ],
      "name": "earlyMint",
      "outputs": [],
      "stateMutability": "payable",
      "type": "function"
    },
    {
      "inputs": [],
      "name": "earlyMintActive",
      "outputs": [
        {
          "internalType": "bool",
          "name": "",
          "type": "bool"
        }
      ],
      "stateMutability": "view",
      "type": "function"
    },
    {
      "inputs": [],
      "name": "flatFeePerMonth",
      "outputs": [
        {
          "internalType": "uint256",
          "name": "",
          "type": "uint256"
        }
      ],
      "stateMutability": "view",
      "type": "function"
    },
    {
      "inputs": [
        {
          "internalType": "uint256",
          "name": "tokenId",
          "type": "uint256"
        }
      ],
      "name": "getApproved",
      "outputs": [
        {
          "internalType": "address",
          "name": "",
          "type": "address"
        }
      ],
      "stateMutability": "view",
      "type": "function"
    },
    {
      "inputs": [
        {
          "internalType": "uint256",
          "name": "tokenId",
          "type": "uint256"
        }
      ],
      "name": "getExpiration",
      "outputs": [
        {
          "internalType": "uint256",
          "name": "",
          "type": "uint256"
        }
      ],
      "stateMutability": "view",
      "type": "function"
    },
    {
      "inputs": [
        {
          "internalType": "address",
          "name": "owner",
          "type": "address"
        }
      ],
      "name": "getNamesByOwner",
      "outputs": [
        {
          "internalType": "string[]",
          "name": "",
          "type": "string[]"
        }
      ],
      "stateMutability": "view",
      "type": "function"
    },
    {
      "inputs": [
        {
          "internalType": "address",
          "name": "owner",
          "type": "address"
        },
        {
          "internalType": "address",
          "name": "operator",
          "type": "address"
        }
      ],
      "name": "isApprovedForAll",
      "outputs": [
        {
          "internalType": "bool",
          "name": "",
          "type": "bool"
        }
      ],
      "stateMutability": "view",
      "type": "function"
    },
    {
      "inputs": [
        {
          "internalType": "uint256",
          "name": "tokenId",
          "type": "uint256"
        }
      ],
      "name": "isNameAvailable",
      "outputs": [
        {
          "internalType": "bool",
          "name": "",
          "type": "bool"
        }
      ],
      "stateMutability": "view",
      "type": "function"
    },
    {
      "inputs": [
        {
          "internalType": "string",
          "name": "_name",
          "type": "string"
        },
        {
          "internalType": "uint256",
          "name": "_months",
          "type": "uint256"
        },
        {
          "internalType": "string",
          "name": "_uri",
          "type": "string"
        }
      ],
      "name": "mintName",
      "outputs": [],
      "stateMutability": "payable",
      "type": "function"
    },
    {
      "inputs": [],
      "name": "name",
      "outputs": [
        {
          "internalType": "string",
          "name": "",
          "type": "string"
        }
      ],
      "stateMutability": "view",
      "type": "function"
    },
    {
      "inputs": [
        {
          "internalType": "string",
          "name": "",
          "type": "string"
        }
      ],
      "name": "nameToTokenId",
      "outputs": [
        {
          "internalType": "uint256",
          "name": "",
          "type": "uint256"
        }
      ],
      "stateMutability": "view",
      "type": "function"
    },
    {
      "inputs": [
        {
          "internalType": "uint256",
          "name": "",
          "type": "uint256"
        }
      ],
      "name": "names",
      "outputs": [
        {
          "internalType": "string",
          "name": "name",
          "type": "string"
        },
        {
          "internalType": "uint256",
          "name": "expiration",
          "type": "uint256"
        }
      ],
      "stateMutability": "view",
      "type": "function"
    },
    {
      "inputs": [],
      "name": "nextTokenId",
      "outputs": [
        {
          "internalType": "uint256",
          "name": "",
          "type": "uint256"
        }
      ],
      "stateMutability": "view",
      "type": "function"
    },
    {
      "inputs": [],
      "name": "owner",
      "outputs": [
        {
          "internalType": "address",
          "name": "",
          "type": "address"
        }
      ],
      "stateMutability": "view",
      "type": "function"
    },
    {
      "inputs": [
        {
          "internalType": "uint256",
          "name": "tokenId",
          "type": "uint256"
        }
      ],
      "name": "ownerOf",
      "outputs": [
        {
          "internalType": "address",
          "name": "",
          "type": "address"
        }
      ],
      "stateMutability": "view",
      "type": "function"
    },
    {
      "inputs": [],
      "name": "pause",
      "outputs": [],
      "stateMutability": "nonpayable",
      "type": "function"
    },
    {
      "inputs": [],
      "name": "paused",
      "outputs": [
        {
          "internalType": "bool",
          "name": "",
          "type": "bool"
        }
      ],
      "stateMutability": "view",
      "type": "function"
    },
    {
      "inputs": [
        {
          "internalType": "uint256",
          "name": "tokenId",
          "type": "uint256"
        },
        {
          "internalType": "uint256",
          "name": "_months",
          "type": "uint256"
        }
      ],
      "name": "renewName",
      "outputs": [],
      "stateMutability": "payable",
      "type": "function"
    },
    {
      "inputs": [],
      "name": "renounceOwnership",
      "outputs": [],
      "stateMutability": "nonpayable",
      "type": "function"
    },
    {
      "inputs": [
        {
          "internalType": "address",
          "name": "_recipient",
          "type": "address"
        },
        {
          "internalType": "string",
          "name": "_name",
          "type": "string"
        },
        {
          "internalType": "uint256",
          "name": "_months",
          "type": "uint256"
        },
        {
          "internalType": "string",
          "name": "_uri",
          "type": "string"
        }
      ],
      "name": "reserveName",
      "outputs": [],
      "stateMutability": "nonpayable",
      "type": "function"
    },
    {
      "inputs": [
        {
          "internalType": "string",
          "name": "_name",
          "type": "string"
        }
      ],
      "name": "resolveName",
      "outputs": [
        {
          "internalType": "address",
          "name": "",
          "type": "address"
        }
      ],
      "stateMutability": "view",
      "type": "function"
    },
    {
      "inputs": [
        {
          "internalType": "address",
          "name": "from",
          "type": "address"
        },
        {
          "internalType": "address",
          "name": "to",
          "type": "address"
        },
        {
          "internalType": "uint256",
          "name": "tokenId",
          "type": "uint256"
        }
      ],
      "name": "safeTransferFrom",
      "outputs": [],
      "stateMutability": "nonpayable",
      "type": "function"
    },
    {
      "inputs": [
        {
          "internalType": "address",
          "name": "from",
          "type": "address"
        },
        {
          "internalType": "address",
          "name": "to",
          "type": "address"
        },
        {
          "internalType": "uint256",
          "name": "tokenId",
          "type": "uint256"
        },
        {
          "internalType": "bytes",
          "name": "data",
          "type": "bytes"
        }
      ],
      "name": "safeTransferFrom",
      "outputs": [],
      "stateMutability": "nonpayable",
      "type": "function"
    },
    {
      "inputs": [
        {
          "internalType": "address",
          "name": "operator",
          "type": "address"
        },
        {
          "internalType": "bool",
          "name": "approved",
          "type": "bool"
        }
      ],
      "name": "setApprovalForAll",
      "outputs": [],
      "stateMutability": "nonpayable",
      "type": "function"
    },
    {
      "inputs": [
        {
          "internalType": "bool",
          "name": "_status",
          "type": "bool"
        }
      ],
      "name": "setEarlyMintActive",
      "outputs": [],
      "stateMutability": "nonpayable",
      "type": "function"
    },
    {
      "inputs": [
        {
          "internalType": "uint256",
          "name": "_fee",
          "type": "uint256"
        }
      ],
      "name": "setFlatFeePerMonth",
      "outputs": [],
      "stateMutability": "nonpayable",
      "type": "function"
    },
    {
      "inputs": [
        {
          "internalType": "bytes4",
          "name": "interfaceId",
          "type": "bytes4"
        }
      ],
      "name": "supportsInterface",
      "outputs": [
        {
          "internalType": "bool",
          "name": "",
          "type": "bool"
        }
      ],
      "stateMutability": "view",
      "type": "function"
    },
    {
      "inputs": [],
      "name": "symbol",
      "outputs": [
        {
          "internalType": "string",
          "name": "",
          "type": "string"
        }
      ],
      "stateMutability": "view",
      "type": "function"
    },
    {
      "inputs": [
        {
          "internalType": "uint256",
          "name": "index",
          "type": "uint256"
        }
      ],
      "name": "tokenByIndex",
      "outputs": [
        {
          "internalType": "uint256",
          "name": "",
          "type": "uint256"
        }
      ],
      "stateMutability": "view",
      "type": "function"
    },
    {
      "inputs": [
        {
          "internalType": "address",
          "name": "owner",
          "type": "address"
        },
        {
          "internalType": "uint256",
          "name": "index",
          "type": "uint256"
        }
      ],
      "name": "tokenOfOwnerByIndex",
      "outputs": [
        {
          "internalType": "uint256",
          "name": "",
          "type": "uint256"
        }
      ],
      "stateMutability": "view",
      "type": "function"
    },
    {
      "inputs": [
        {
          "internalType": "uint256",
          "name": "tokenId",
          "type": "uint256"
        }
      ],
      "name": "tokenURI",
      "outputs": [
        {
          "internalType": "string",
          "name": "",
          "type": "string"
        }
      ],
      "stateMutability": "view",
      "type": "function"
    },
    {
      "inputs": [],
      "name": "totalSupply",
      "outputs": [
        {
          "internalType": "uint256",
          "name": "",
          "type": "uint256"
        }
      ],
      "stateMutability": "view",
      "type": "function"
    },
    {
      "inputs": [
        {
          "internalType": "address",
          "name": "from",
          "type": "address"
        },
        {
          "internalType": "address",
          "name": "to",
          "type": "address"
        },
        {
          "internalType": "uint256",
          "name": "tokenId",
          "type": "uint256"
        }
      ],
      "name": "transferFrom",
      "outputs": [],
      "stateMutability": "nonpayable",
      "type": "function"
    },
    {
      "inputs": [
        {
          "internalType": "address",
          "name": "newOwner",
          "type": "address"
        }
      ],
      "name": "transferOwnership",
      "outputs": [],
      "stateMutability": "nonpayable",
      "type": "function"
    },
    {
      "inputs": [],
      "name": "unpause",
      "outputs": [],
      "stateMutability": "nonpayable",
      "type": "function"
    },
    {
      "inputs": [],
      "name": "withdraw",
      "outputs": [],
      "stateMutability": "nonpayable",
      "type": "function"
    }
  ],
  "bytecode": "0x6080604052662386f26fc10000600f553480156200001c57600080fd5b50336040518060400160405280600981526020017f506561716e616d657300000000000000000000000000000000000000000000008152506040518060400160405280600981526020017f504541514e414d4553000000000000000000000000000000000000000000000081525081600090816200009b9190620005a1565b508060019081620000ad9190620005a1565b505050600073ffffffffffffffffffffffffffffffffffffffff168173ffffffffffffffffffffffffffffffffffffffff1603620001255760006040517f1e4fbdf70000000000000000000000000000000000000000000000000000000081526004016200011c9190620006cd565b60405180910390fd5b62000136816200018360201b60201c565b506000600b60146101000a81548160ff0219169083151502179055506001601160006101000a81548160ff0219169083151502179055506200017d6200024960201b60201c565b620006ea565b6000600b60009054906101000a900473ffffffffffffffffffffffffffffffffffffffff16905081600b60006101000a81548173ffffffffffffffffffffffffffffffffffffffff021916908373ffffffffffffffffffffffffffffffffffffffff1602179055508173ffffffffffffffffffffffffffffffffffffffff168173ffffffffffffffffffffffffffffffffffffffff167f8be0079c531659141344cd1fd0a4f28419497f9722a3daafe3b4186f6b6457e060405160405180910390a35050565b62000259620002be60201b60201c565b6001600b60146101000a81548160ff0219169083151502179055507f62e78cea01bee320cd4e420270b5ea74000d11b0c9f74754ebdbfc544b05a258620002a56200030860201b60201c565b604051620002b49190620006cd565b60405180910390a1565b620002ce6200031060201b60201c565b1562000306576040517fd93c066500000000000000000000000000000000000000000000000000000000815260040160405180910390fd5b565b600033905090565b6000600b60149054906101000a900460ff16905090565b600081519050919050565b7f4e487b7100000000000000000000000000000000000000000000000000000000600052604160045260246000fd5b7f4e487b7100000000000000000000000000000000000000000000000000000000600052602260045260246000fd5b60006002820490506001821680620003a957607f821691505b602082108103620003bf57620003be62000361565b5b50919050565b60008190508160005260206000209050919050565b60006020601f8301049050919050565b600082821b905092915050565b600060088302620004297fffffffffffffffffffffffffffffffffffffffffffffffffffffffffffffffff82620003ea565b620004358683620003ea565b95508019841693508086168417925050509392505050565b6000819050919050565b6000819050919050565b6000620004826200047c62000476846200044d565b62000457565b6200044d565b9050919050565b6000819050919050565b6200049e8362000461565b620004b6620004ad8262000489565b848454620003f7565b825550505050565b600090565b620004cd620004be565b620004da81848462000493565b505050565b5b818110156200050257620004f6600082620004c3565b600181019050620004e0565b5050565b601f82111562000551576200051b81620003c5565b6200052684620003da565b8101602085101562000536578190505b6200054e6200054585620003da565b830182620004df565b50505b505050565b600082821c905092915050565b6000620005766000198460080262000556565b1980831691505092915050565b600062000591838362000563565b9150826002028217905092915050565b620005ac8262000327565b67ffffffffffffffff811115620005c857620005c762000332565b5b620005d4825462000390565b620005e182828562000506565b600060209050601f83116001811462000619576000841562000604578287015190505b62000610858262000583565b86555062000680565b601f1984166200062986620003c5565b60005b8281101562000653578489015182556001820191506020850194506020810190506200062c565b868310156200067357848901516200066f601f89168262000563565b8355505b6001600288020188555050505b505050505050565b600073ffffffffffffffffffffffffffffffffffffffff82169050919050565b6000620006b58262000688565b9050919050565b620006c781620006a8565b82525050565b6000602082019050620006e46000830184620006bc565b92915050565b614d0a80620006fa6000396000f3fe60806040526004361061023b5760003560e01c80636352211e1161012e578063a22cb465116100ab578063c87b56dd1161006f578063c87b56dd1461086d578063dd001254146108aa578063e985e9c5146108e7578063f2fde38b14610924578063fd20940f1461094d5761023b565b8063a22cb46514610776578063a7cd52cb1461079f578063b88d4fde146107dc578063bc19bce514610805578063c0d8d2cc146108425761023b565b806375a765ac116100f257806375a765ac1461068f5780638456cb59146106cc5780638da5cb5b146106e357806395d89b411461070e578063a05b775f146107395761023b565b80636352211e1461059657806369ba0f27146105d357806370a0823114610610578063715018a61461064d57806375794a3c146106645761023b565b80632fb16bc8116101bc5780634622ab03116101805780634622ab03146104ab5780634a948bca146104e95780634f6ccce7146105055780635207c273146105425780635c975abb1461056b5761023b565b80632fb16bc8146104005780633a4d701e1461042b5780633ccfd60b146104545780633f4ba83a1461046b57806342842e0e146104825761023b565b80631d548974116102035780631d5489741461033957806323b872dd146103555780632ccf12081461037e5780632f745c591461039a5780632f7b9040146103d75761023b565b806301ffc9a71461024057806306fdde031461027d578063081812fc146102a8578063095ea7b3146102e557806318160ddd1461030e575b600080fd5b34801561024c57600080fd5b50610267600480360381019061026291906136a4565b610976565b60405161027491906136ec565b60405180910390f35b34801561028957600080fd5b50610292610988565b60405161029f9190613797565b60405180910390f35b3480156102b457600080fd5b506102cf60048036038101906102ca91906137ef565b610a1a565b6040516102dc919061385d565b60405180910390f35b3480156102f157600080fd5b5061030c600480360381019061030791906138a4565b610a36565b005b34801561031a57600080fd5b50610323610a4c565b60405161033091906138f3565b60405180910390f35b610353600480360381019061034e919061390e565b610a59565b005b34801561036157600080fd5b5061037c6004803603810190610377919061394e565b610c24565b005b61039860048036038101906103939190613ad6565b610d26565b005b3480156103a657600080fd5b506103c160048036038101906103bc91906138a4565b610d8e565b6040516103ce91906138f3565b60405180910390f35b3480156103e357600080fd5b506103fe60048036038101906103f991906137ef565b610e37565b005b34801561040c57600080fd5b50610415610e80565b60405161042291906136ec565b60405180910390f35b34801561043757600080fd5b50610452600480360381019061044d9190613b8d565b610e93565b005b34801561046057600080fd5b50610469610eef565b005b34801561047757600080fd5b50610480610f47565b005b34801561048e57600080fd5b506104a960048036038101906104a4919061394e565b610f59565b005b3480156104b757600080fd5b506104d260048036038101906104cd91906137ef565b610f79565b6040516104e0929190613bba565b60405180910390f35b61050360048036038101906104fe9190613ad6565b611025565b005b34801561051157600080fd5b5061052c600480360381019061052791906137ef565b611110565b60405161053991906138f3565b60405180910390f35b34801561054e57600080fd5b5061056960048036038101906105649190613c4a565b611186565b005b34801561057757600080fd5b50610580611297565b60405161058d91906136ec565b60405180910390f35b3480156105a257600080fd5b506105bd60048036038101906105b891906137ef565b6112ae565b6040516105ca919061385d565b60405180910390f35b3480156105df57600080fd5b506105fa60048036038101906105f591906137ef565b6112c0565b60405161060791906136ec565b60405180910390f35b34801561061c57600080fd5b5061063760048036038101906106329190613c97565b6112e2565b60405161064491906138f3565b60405180910390f35b34801561065957600080fd5b5061066261139c565b005b34801561067057600080fd5b506106796113b0565b60405161068691906138f3565b60405180910390f35b34801561069b57600080fd5b506106b660048036038101906106b19190613c97565b6113b6565b6040516106c39190613dd0565b60405180910390f35b3480156106d857600080fd5b506106e1611545565b005b3480156106ef57600080fd5b506106f8611557565b604051610705919061385d565b60405180910390f35b34801561071a57600080fd5b50610723611581565b6040516107309190613797565b60405180910390f35b34801561074557600080fd5b50610760600480360381019061075b91906137ef565b611613565b60405161076d91906138f3565b60405180910390f35b34801561078257600080fd5b5061079d60048036038101906107989190613df2565b611633565b005b3480156107ab57600080fd5b506107c660048036038101906107c19190613c97565b611649565b6040516107d391906136ec565b60405180910390f35b3480156107e857600080fd5b5061080360048036038101906107fe9190613ed3565b611669565b005b34801561081157600080fd5b5061082c60048036038101906108279190613f56565b611686565b604051610839919061385d565b60405180910390f35b34801561084e57600080fd5b506108576116fe565b60405161086491906138f3565b60405180910390f35b34801561087957600080fd5b50610894600480360381019061088f91906137ef565b611704565b6040516108a19190613797565b60405180910390f35b3480156108b657600080fd5b506108d160048036038101906108cc9190613f56565b611716565b6040516108de91906138f3565b60405180910390f35b3480156108f357600080fd5b5061090e60048036038101906109099190613f9f565b611744565b60405161091b91906136ec565b60405180910390f35b34801561093057600080fd5b5061094b60048036038101906109469190613c97565b6117d8565b005b34801561095957600080fd5b50610974600480360381019061096f9190613fdf565b61185e565b005b600061098182611a64565b9050919050565b606060008054610997906140ad565b80601f01602080910402602001604051908101604052809291908181526020018280546109c3906140ad565b8015610a105780601f106109e557610100808354040283529160200191610a10565b820191906000526020600020905b8154815290600101906020018083116109f357829003601f168201915b5050505050905090565b6000610a2582611ac5565b50610a2f82611b4d565b9050919050565b610a488282610a43611b8a565b611b92565b5050565b6000600880549050905090565b610a61611ba4565b3373ffffffffffffffffffffffffffffffffffffffff16610a81836112ae565b73ffffffffffffffffffffffffffffffffffffffff1614610ad7576040517f08c379a0000000000000000000000000000000000000000000000000000000008152600401610ace9061412a565b60405180910390fd5b60008111610b1a576040517f08c379a0000000000000000000000000000000000000000000000000000000008152600401610b11906141bc565b60405180910390fd5b600f5481610b28919061420b565b341015610b6a576040517f08c379a0000000000000000000000000000000000000000000000000000000008152600401610b6190614299565b60405180910390fd5b600062278d0082610b7b919061420b565b600c600085815260200190815260200160002060010154610b9c91906142b9565b905080600c600085815260200190815260200160002060010181905550823373ffffffffffffffffffffffffffffffffffffffff167ff2ae06e4051d8da56ecb02145a01189388c74801291ba0f146561bde21ab1dc9600c600087815260200190815260200160002060000184604051610c17929190614386565b60405180910390a3505050565b600073ffffffffffffffffffffffffffffffffffffffff168273ffffffffffffffffffffffffffffffffffffffff1603610c965760006040517f64a0ae92000000000000000000000000000000000000000000000000000000008152600401610c8d919061385d565b60405180910390fd5b6000610caa8383610ca5611b8a565b611be5565b90508373ffffffffffffffffffffffffffffffffffffffff168173ffffffffffffffffffffffffffffffffffffffff1614610d20578382826040517f64283d7b000000000000000000000000000000000000000000000000000000008152600401610d17939291906143b6565b60405180910390fd5b50505050565b610d2e611ba4565b601160009054906101000a900460ff1615610d7e576040517f08c379a0000000000000000000000000000000000000000000000000000000008152600401610d7590614439565b60405180910390fd5b610d89838383611bfb565b505050565b6000610d99836112e2565b8210610dde5782826040517fa57d13dc000000000000000000000000000000000000000000000000000000008152600401610dd5929190614459565b60405180910390fd5b600660008473ffffffffffffffffffffffffffffffffffffffff1673ffffffffffffffffffffffffffffffffffffffff168152602001908152602001600020600083815260200190815260200160002054905092915050565b610e3f611e65565b80600f819055507f8c4d35e54a3f2ef1134138fd8ea3daee6a3c89e10d2665996babdf70261e2c7681604051610e7591906138f3565b60405180910390a150565b601160009054906101000a900460ff1681565b610e9b611e65565b80601160006101000a81548160ff0219169083151502179055507fad5ec80defa22c17a98bcc53be6ceb8e05b817bb441a7ff5b600f720225c2e2781604051610ee491906136ec565b60405180910390a150565b610ef7611e65565b610eff611557565b73ffffffffffffffffffffffffffffffffffffffff166108fc479081150290604051600060405180830381858888f19350505050158015610f44573d6000803e3d6000fd5b50565b610f4f611e65565b610f57611eec565b565b610f7483838360405180602001604052806000815250611669565b505050565b600c602052806000526040600020600091509050806000018054610f9c906140ad565b80601f0160208091040260200160405190810160405280929190818152602001828054610fc8906140ad565b80156110155780601f10610fea57610100808354040283529160200191611015565b820191906000526020600020905b815481529060010190602001808311610ff857829003601f168201915b5050505050908060010154905082565b601160009054906101000a900460ff16611074576040517f08c379a000000000000000000000000000000000000000000000000000000000815260040161106b906144ce565b60405180910390fd5b601060003373ffffffffffffffffffffffffffffffffffffffff1673ffffffffffffffffffffffffffffffffffffffff16815260200190815260200160002060009054906101000a900460ff16611100576040517f08c379a00000000000000000000000000000000000000000000000000000000081526004016110f79061453a565b60405180910390fd5b61110b838383611bfb565b505050565b600061111a610a4c565b8210611160576000826040517fa57d13dc000000000000000000000000000000000000000000000000000000008152600401611157929190614459565b60405180910390fd5b600882815481106111745761117361455a565b5b90600052602060002001549050919050565b61118e611e65565b60005b82829050811015611292576001601060008585858181106111b5576111b461455a565b5b90506020020160208101906111ca9190613c97565b73ffffffffffffffffffffffffffffffffffffffff1673ffffffffffffffffffffffffffffffffffffffff16815260200190815260200160002060006101000a81548160ff02191690831515021790555082828281811061122e5761122d61455a565b5b90506020020160208101906112439190613c97565b73ffffffffffffffffffffffffffffffffffffffff167fae6a58ee3666874547982a5c31620ca570592085a3e45d7bd52081fdd0082bc560405160405180910390a28080600101915050611191565b505050565b6000600b60149054906101000a900460ff16905090565b60006112b982611ac5565b9050919050565b6000600c60008381526020019081526020016000206001015442119050919050565b60008073ffffffffffffffffffffffffffffffffffffffff168273ffffffffffffffffffffffffffffffffffffffff16036113555760006040517f89c62b6400000000000000000000000000000000000000000000000000000000815260040161134c919061385d565b60405180910390fd5b600360008373ffffffffffffffffffffffffffffffffffffffff1673ffffffffffffffffffffffffffffffffffffffff168152602001908152602001600020549050919050565b6113a4611e65565b6113ae6000611f4f565b565b600e5481565b606060006113c3836112e2565b905060008167ffffffffffffffff8111156113e1576113e06139ab565b5b60405190808252806020026020018201604052801561141457816020015b60608152602001906001900390816113ff5790505b5090506000805b600e54811015611539578573ffffffffffffffffffffffffffffffffffffffff16611445826112ae565b73ffffffffffffffffffffffffffffffffffffffff160361152c57600c60008281526020019081526020016000206000018054611481906140ad565b80601f01602080910402602001604051908101604052809291908181526020018280546114ad906140ad565b80156114fa5780601f106114cf576101008083540402835291602001916114fa565b820191906000526020600020905b8154815290600101906020018083116114dd57829003601f168201915b50505050508383815181106115125761151161455a565b5b6020026020010181905250818061152890614589565b9250505b808060010191505061141b565b50819350505050919050565b61154d611e65565b611555612015565b565b6000600b60009054906101000a900473ffffffffffffffffffffffffffffffffffffffff16905090565b606060018054611590906140ad565b80601f01602080910402602001604051908101604052809291908181526020018280546115bc906140ad565b80156116095780601f106115de57610100808354040283529160200191611609565b820191906000526020600020905b8154815290600101906020018083116115ec57829003601f168201915b5050505050905090565b6000600c6000838152602001908152602001600020600101549050919050565b61164561163e611b8a565b8383612078565b5050565b60106020528060005260406000206000915054906101000a900460ff1681565b611674848484610c24565b611680848484846121e7565b50505050565b600080600d83604051611699919061460d565b9081526020016040518091039020549050600081036116ed576040517f08c379a00000000000000000000000000000000000000000000000000000000081526004016116e490614670565b60405180910390fd5b6116f6816112ae565b915050919050565b600f5481565b606061170f8261239e565b9050919050565b600d818051602081018201805184825260208301602085012081835280955050505050506000915090505481565b6000600560008473ffffffffffffffffffffffffffffffffffffffff1673ffffffffffffffffffffffffffffffffffffffff16815260200190815260200160002060008373ffffffffffffffffffffffffffffffffffffffff1673ffffffffffffffffffffffffffffffffffffffff16815260200190815260200160002060009054906101000a900460ff16905092915050565b6117e0611e65565b600073ffffffffffffffffffffffffffffffffffffffff168173ffffffffffffffffffffffffffffffffffffffff16036118525760006040517f1e4fbdf7000000000000000000000000000000000000000000000000000000008152600401611849919061385d565b60405180910390fd5b61185b81611f4f565b50565b611866611e65565b600073ffffffffffffffffffffffffffffffffffffffff168473ffffffffffffffffffffffffffffffffffffffff16036118d5576040517f08c379a00000000000000000000000000000000000000000000000000000000081526004016118cc906146dc565b60405180910390fd5b6000600d846040516118e7919061460d565b90815260200160405180910390205490506000811461195257611909816112c0565b611948576040517f08c379a000000000000000000000000000000000000000000000000000000000815260040161193f90614748565b60405180910390fd5b611951816124b1565b5b600e600081548092919061196590614589565b919050559050600062278d008461197c919061420b565b4261198791906142b9565b9050604051806040016040528086815260200182815250600c600084815260200190815260200160002060008201518160000190816119c691906148ff565b506020820151816001015590505081600d866040516119e5919061460d565b908152602001604051809103902081905550611a018683612537565b611a0b8284612630565b818673ffffffffffffffffffffffffffffffffffffffff167f49c5d94858643e3f63e30d539bc89bd7c5c18355ab01f3d5590b83b59e1a27f88784604051611a54929190613bba565b60405180910390a3505050505050565b6000634906490660e01b7bffffffffffffffffffffffffffffffffffffffffffffffffffffffff1916827bffffffffffffffffffffffffffffffffffffffffffffffffffffffff19161480611abe5750611abd8261268c565b5b9050919050565b600080611ad183612706565b9050600073ffffffffffffffffffffffffffffffffffffffff168173ffffffffffffffffffffffffffffffffffffffff1603611b4457826040517f7e273289000000000000000000000000000000000000000000000000000000008152600401611b3b91906138f3565b60405180910390fd5b80915050919050565b60006004600083815260200190815260200160002060009054906101000a900473ffffffffffffffffffffffffffffffffffffffff169050919050565b600033905090565b611b9f8383836001612743565b505050565b611bac611297565b15611be3576040517fd93c066500000000000000000000000000000000000000000000000000000000815260040160405180910390fd5b565b6000611bf2848484612908565b90509392505050565b6001821015611c3f576040517f08c379a0000000000000000000000000000000000000000000000000000000008152600401611c3690614a43565b60405180910390fd5b600f5482611c4d919061420b565b341015611c8f576040517f08c379a0000000000000000000000000000000000000000000000000000000008152600401611c8690614299565b60405180910390fd5b611c9883612a25565b611cd7576040517f08c379a0000000000000000000000000000000000000000000000000000000008152600401611cce90614aaf565b60405180910390fd5b6000600d84604051611ce9919061460d565b908152602001604051809103902054905060008114611d5457611d0b816112c0565b611d4a576040517f08c379a0000000000000000000000000000000000000000000000000000000008152600401611d4190614b1b565b60405180910390fd5b611d53816124b1565b5b600e6000815480929190611d6790614589565b919050559050600062278d0084611d7e919061420b565b42611d8991906142b9565b9050604051806040016040528086815260200182815250600c60008481526020019081526020016000206000820151816000019081611dc891906148ff565b506020820151816001015590505081600d86604051611de7919061460d565b908152602001604051809103902081905550611e033383612537565b611e0d8284612630565b813373ffffffffffffffffffffffffffffffffffffffff167ff2ae06e4051d8da56ecb02145a01189388c74801291ba0f146561bde21ab1dc98784604051611e56929190613bba565b60405180910390a35050505050565b611e6d611b8a565b73ffffffffffffffffffffffffffffffffffffffff16611e8b611557565b73ffffffffffffffffffffffffffffffffffffffff1614611eea57611eae611b8a565b6040517f118cdaa7000000000000000000000000000000000000000000000000000000008152600401611ee1919061385d565b60405180910390fd5b565b611ef4612b66565b6000600b60146101000a81548160ff0219169083151502179055507f5db9ee0a495bf2e6ff9c91a7834c1ba4fdd244a5e8aa4e537bd38aeae4b073aa611f38611b8a565b604051611f45919061385d565b60405180910390a1565b6000600b60009054906101000a900473ffffffffffffffffffffffffffffffffffffffff16905081600b60006101000a81548173ffffffffffffffffffffffffffffffffffffffff021916908373ffffffffffffffffffffffffffffffffffffffff1602179055508173ffffffffffffffffffffffffffffffffffffffff168173ffffffffffffffffffffffffffffffffffffffff167f8be0079c531659141344cd1fd0a4f28419497f9722a3daafe3b4186f6b6457e060405160405180910390a35050565b61201d611ba4565b6001600b60146101000a81548160ff0219169083151502179055507f62e78cea01bee320cd4e420270b5ea74000d11b0c9f74754ebdbfc544b05a258612061611b8a565b60405161206e919061385d565b60405180910390a1565b600073ffffffffffffffffffffffffffffffffffffffff168273ffffffffffffffffffffffffffffffffffffffff16036120e957816040517f5b08ba180000000000000000000000000000000000000000000000000000000081526004016120e0919061385d565b60405180910390fd5b80600560008573ffffffffffffffffffffffffffffffffffffffff1673ffffffffffffffffffffffffffffffffffffffff16815260200190815260200160002060008473ffffffffffffffffffffffffffffffffffffffff1673ffffffffffffffffffffffffffffffffffffffff16815260200190815260200160002060006101000a81548160ff0219169083151502179055508173ffffffffffffffffffffffffffffffffffffffff168373ffffffffffffffffffffffffffffffffffffffff167f17307eab39ab6107e8899845ad3d59bd9653f200f220920489ca2b5937696c31836040516121da91906136ec565b60405180910390a3505050565b60008373ffffffffffffffffffffffffffffffffffffffff163b1115612398578273ffffffffffffffffffffffffffffffffffffffff1663150b7a0261222b611b8a565b8685856040518563ffffffff1660e01b815260040161224d9493929190614b90565b6020604051808303816000875af192505050801561228957506040513d601f19601f820116820180604052508101906122869190614bf1565b60015b61230d573d80600081146122b9576040519150601f19603f3d011682016040523d82523d6000602084013e6122be565b606091505b50600081510361230557836040517f64a0ae920000000000000000000000000000000000000000000000000000000081526004016122fc919061385d565b60405180910390fd5b805181602001fd5b63150b7a0260e01b7bffffffffffffffffffffffffffffffffffffffffffffffffffffffff1916817bffffffffffffffffffffffffffffffffffffffffffffffffffffffff19161461239657836040517f64a0ae9200000000000000000000000000000000000000000000000000000000815260040161238d919061385d565b60405180910390fd5b505b50505050565b60606123a982611ac5565b506000600a600084815260200190815260200160002080546123ca906140ad565b80601f01602080910402602001604051908101604052809291908181526020018280546123f6906140ad565b80156124435780601f1061241857610100808354040283529160200191612443565b820191906000526020600020905b81548152906001019060200180831161242657829003601f168201915b505050505090506000612454612ba6565b905060008151036124695781925050506124ac565b60008251111561249e578082604051602001612486929190614c1e565b604051602081830303815290604052925050506124ac565b6124a784612bbd565b925050505b919050565b60006124c06000836000611be5565b9050600073ffffffffffffffffffffffffffffffffffffffff168173ffffffffffffffffffffffffffffffffffffffff160361253357816040517f7e27328900000000000000000000000000000000000000000000000000000000815260040161252a91906138f3565b60405180910390fd5b5050565b600073ffffffffffffffffffffffffffffffffffffffff168273ffffffffffffffffffffffffffffffffffffffff16036125a95760006040517f64a0ae920000000000000000000000000000000000000000000000000000000081526004016125a0919061385d565b60405180910390fd5b60006125b783836000611be5565b9050600073ffffffffffffffffffffffffffffffffffffffff168173ffffffffffffffffffffffffffffffffffffffff161461262b5760006040517f73c6ac6e000000000000000000000000000000000000000000000000000000008152600401612622919061385d565b60405180910390fd5b505050565b80600a6000848152602001908152602001600020908161265091906148ff565b507ff8e1a15aba9398e019f0b49df1a4fde98ee17ae345cb5f6b5e2c27f5033e8ce78260405161268091906138f3565b60405180910390a15050565b60007f780e9d63000000000000000000000000000000000000000000000000000000007bffffffffffffffffffffffffffffffffffffffffffffffffffffffff1916827bffffffffffffffffffffffffffffffffffffffffffffffffffffffff191614806126ff57506126fe82612c26565b5b9050919050565b60006002600083815260200190815260200160002060009054906101000a900473ffffffffffffffffffffffffffffffffffffffff169050919050565b808061277c5750600073ffffffffffffffffffffffffffffffffffffffff168273ffffffffffffffffffffffffffffffffffffffff1614155b156128b057600061278c84611ac5565b9050600073ffffffffffffffffffffffffffffffffffffffff168373ffffffffffffffffffffffffffffffffffffffff16141580156127f757508273ffffffffffffffffffffffffffffffffffffffff168173ffffffffffffffffffffffffffffffffffffffff1614155b801561280a57506128088184611744565b155b1561284c57826040517fa9fbf51f000000000000000000000000000000000000000000000000000000008152600401612843919061385d565b60405180910390fd5b81156128ae57838573ffffffffffffffffffffffffffffffffffffffff168273ffffffffffffffffffffffffffffffffffffffff167f8c5be1e5ebec7d5bd14f71427d1e84f3dd0314c0f7b2291e5b200ac8c7c3b92560405160405180910390a45b505b836004600085815260200190815260200160002060006101000a81548173ffffffffffffffffffffffffffffffffffffffff021916908373ffffffffffffffffffffffffffffffffffffffff16021790555050505050565b600080612916858585612d08565b9050600073ffffffffffffffffffffffffffffffffffffffff168173ffffffffffffffffffffffffffffffffffffffff160361295a5761295584612f22565b612999565b8473ffffffffffffffffffffffffffffffffffffffff168173ffffffffffffffffffffffffffffffffffffffff1614612998576129978185612f6b565b5b5b600073ffffffffffffffffffffffffffffffffffffffff168573ffffffffffffffffffffffffffffffffffffffff16036129db576129d6846130cc565b612a1a565b8473ffffffffffffffffffffffffffffffffffffffff168173ffffffffffffffffffffffffffffffffffffffff1614612a1957612a18858561319d565b5b5b809150509392505050565b600080829050600381511080612a3c575060208151115b15612a4b576000915050612b61565b60005b8151811015612b5a576000828281518110612a6c57612a6b61455a565b5b602001015160f81c60f81b9050603060f81b817effffffffffffffffffffffffffffffffffffffffffffffffffffffffffffff191610158015612ad55750603960f81b817effffffffffffffffffffffffffffffffffffffffffffffffffffffffffffff191611155b158015612b3b5750606160f81b817effffffffffffffffffffffffffffffffffffffffffffffffffffffffffffff191610158015612b395750607a60f81b817effffffffffffffffffffffffffffffffffffffffffffffffffffffffffffff191611155b155b15612b4c5760009350505050612b61565b508080600101915050612a4e565b5060019150505b919050565b612b6e611297565b612ba4576040517f8dfc202b00000000000000000000000000000000000000000000000000000000815260040160405180910390fd5b565b606060405180602001604052806000815250905090565b6060612bc882611ac5565b506000612bd3612ba6565b90506000815111612bf35760405180602001604052806000815250612c1e565b80612bfd84613228565b604051602001612c0e929190614c1e565b6040516020818303038152906040525b915050919050565b60007f80ac58cd000000000000000000000000000000000000000000000000000000007bffffffffffffffffffffffffffffffffffffffffffffffffffffffff1916827bffffffffffffffffffffffffffffffffffffffffffffffffffffffff19161480612cf157507f5b5e139f000000000000000000000000000000000000000000000000000000007bffffffffffffffffffffffffffffffffffffffffffffffffffffffff1916827bffffffffffffffffffffffffffffffffffffffffffffffffffffffff1916145b80612d015750612d00826132f6565b5b9050919050565b600080612d1484612706565b9050600073ffffffffffffffffffffffffffffffffffffffff168373ffffffffffffffffffffffffffffffffffffffff1614612d5657612d55818486613360565b5b600073ffffffffffffffffffffffffffffffffffffffff168173ffffffffffffffffffffffffffffffffffffffff1614612de757612d98600085600080612743565b6001600360008373ffffffffffffffffffffffffffffffffffffffff1673ffffffffffffffffffffffffffffffffffffffff168152602001908152602001600020600082825403925050819055505b600073ffffffffffffffffffffffffffffffffffffffff168573ffffffffffffffffffffffffffffffffffffffff1614612e6a576001600360008773ffffffffffffffffffffffffffffffffffffffff1673ffffffffffffffffffffffffffffffffffffffff168152602001908152602001600020600082825401925050819055505b846002600086815260200190815260200160002060006101000a81548173ffffffffffffffffffffffffffffffffffffffff021916908373ffffffffffffffffffffffffffffffffffffffff160217905550838573ffffffffffffffffffffffffffffffffffffffff168273ffffffffffffffffffffffffffffffffffffffff167fddf252ad1be2c89b69c2b068fc378daa952ba7f163c4a11628f55a4df523b3ef60405160405180910390a4809150509392505050565b6008805490506009600083815260200190815260200160002081905550600881908060018154018082558091505060019003906000526020600020016000909190919091505550565b6000612f76836112e2565b905060006007600084815260200190815260200160002054905081811461305b576000600660008673ffffffffffffffffffffffffffffffffffffffff1673ffffffffffffffffffffffffffffffffffffffff168152602001908152602001600020600084815260200190815260200160002054905080600660008773ffffffffffffffffffffffffffffffffffffffff1673ffffffffffffffffffffffffffffffffffffffff168152602001908152602001600020600084815260200190815260200160002081905550816007600083815260200190815260200160002081905550505b6007600084815260200190815260200160002060009055600660008573ffffffffffffffffffffffffffffffffffffffff1673ffffffffffffffffffffffffffffffffffffffff16815260200190815260200160002060008381526020019081526020016000206000905550505050565b600060016008805490506130e09190614c42565b90506000600960008481526020019081526020016000205490506000600883815481106131105761310f61455a565b5b9060005260206000200154905080600883815481106131325761313161455a565b5b90600052602060002001819055508160096000838152602001908152602001600020819055506009600085815260200190815260200160002060009055600880548061318157613180614c76565b5b6001900381819060005260206000200160009055905550505050565b600060016131aa846112e2565b6131b49190614c42565b905081600660008573ffffffffffffffffffffffffffffffffffffffff1673ffffffffffffffffffffffffffffffffffffffff168152602001908152602001600020600083815260200190815260200160002081905550806007600084815260200190815260200160002081905550505050565b60606000600161323784613424565b01905060008167ffffffffffffffff811115613256576132556139ab565b5b6040519080825280601f01601f1916602001820160405280156132885781602001600182028036833780820191505090505b509050600082602001820190505b6001156132eb578080600190039150507f3031323334353637383961626364656600000000000000000000000000000000600a86061a8153600a85816132df576132de614ca5565b5b04945060008503613296575b819350505050919050565b60007f01ffc9a7000000000000000000000000000000000000000000000000000000007bffffffffffffffffffffffffffffffffffffffffffffffffffffffff1916827bffffffffffffffffffffffffffffffffffffffffffffffffffffffff1916149050919050565b61336b838383613577565b61341f57600073ffffffffffffffffffffffffffffffffffffffff168373ffffffffffffffffffffffffffffffffffffffff16036133e057806040517f7e2732890000000000000000000000000000000000000000000000000000000081526004016133d791906138f3565b60405180910390fd5b81816040517f177e802f000000000000000000000000000000000000000000000000000000008152600401613416929190614459565b60405180910390fd5b505050565b600080600090507a184f03e93ff9f4daa797ed6e38ed64bf6a1f0100000000000000008310613482577a184f03e93ff9f4daa797ed6e38ed64bf6a1f010000000000000000838161347857613477614ca5565b5b0492506040810190505b6d04ee2d6d415b85acef810000000083106134bf576d04ee2d6d415b85acef810000000083816134b5576134b4614ca5565b5b0492506020810190505b662386f26fc1000083106134ee57662386f26fc1000083816134e4576134e3614ca5565b5b0492506010810190505b6305f5e1008310613517576305f5e100838161350d5761350c614ca5565b5b0492506008810190505b612710831061353c57612710838161353257613531614ca5565b5b0492506004810190505b6064831061355f576064838161355557613554614ca5565b5b0492506002810190505b600a831061356e576001810190505b80915050919050565b60008073ffffffffffffffffffffffffffffffffffffffff168373ffffffffffffffffffffffffffffffffffffffff161415801561362f57508273ffffffffffffffffffffffffffffffffffffffff168473ffffffffffffffffffffffffffffffffffffffff1614806135f057506135ef8484611744565b5b8061362e57508273ffffffffffffffffffffffffffffffffffffffff1661361683611b4d565b73ffffffffffffffffffffffffffffffffffffffff16145b5b90509392505050565b6000604051905090565b600080fd5b600080fd5b60007fffffffff0000000000000000000000000000000000000000000000000000000082169050919050565b6136818161364c565b811461368c57600080fd5b50565b60008135905061369e81613678565b92915050565b6000602082840312156136ba576136b9613642565b5b60006136c88482850161368f565b91505092915050565b60008115159050919050565b6136e6816136d1565b82525050565b600060208201905061370160008301846136dd565b92915050565b600081519050919050565b600082825260208201905092915050565b60005b83811015613741578082015181840152602081019050613726565b60008484015250505050565b6000601f19601f8301169050919050565b600061376982613707565b6137738185613712565b9350613783818560208601613723565b61378c8161374d565b840191505092915050565b600060208201905081810360008301526137b1818461375e565b905092915050565b6000819050919050565b6137cc816137b9565b81146137d757600080fd5b50565b6000813590506137e9816137c3565b92915050565b60006020828403121561380557613804613642565b5b6000613813848285016137da565b91505092915050565b600073ffffffffffffffffffffffffffffffffffffffff82169050919050565b60006138478261381c565b9050919050565b6138578161383c565b82525050565b6000602082019050613872600083018461384e565b92915050565b6138818161383c565b811461388c57600080fd5b50565b60008135905061389e81613878565b92915050565b600080604083850312156138bb576138ba613642565b5b60006138c98582860161388f565b92505060206138da858286016137da565b9150509250929050565b6138ed816137b9565b82525050565b600060208201905061390860008301846138e4565b92915050565b6000806040838503121561392557613924613642565b5b6000613933858286016137da565b9250506020613944858286016137da565b9150509250929050565b60008060006060848603121561396757613966613642565b5b60006139758682870161388f565b93505060206139868682870161388f565b9250506040613997868287016137da565b9150509250925092565b600080fd5b600080fd5b7f4e487b7100000000000000000000000000000000000000000000000000000000600052604160045260246000fd5b6139e38261374d565b810181811067ffffffffffffffff82111715613a0257613a016139ab565b5b80604052505050565b6000613a15613638565b9050613a2182826139da565b919050565b600067ffffffffffffffff821115613a4157613a406139ab565b5b613a4a8261374d565b9050602081019050919050565b82818337600083830152505050565b6000613a79613a7484613a26565b613a0b565b905082815260208101848484011115613a9557613a946139a6565b5b613aa0848285613a57565b509392505050565b600082601f830112613abd57613abc6139a1565b5b8135613acd848260208601613a66565b91505092915050565b600080600060608486031215613aef57613aee613642565b5b600084013567ffffffffffffffff811115613b0d57613b0c613647565b5b613b1986828701613aa8565b9350506020613b2a868287016137da565b925050604084013567ffffffffffffffff811115613b4b57613b4a613647565b5b613b5786828701613aa8565b9150509250925092565b613b6a816136d1565b8114613b7557600080fd5b50565b600081359050613b8781613b61565b92915050565b600060208284031215613ba357613ba2613642565b5b6000613bb184828501613b78565b91505092915050565b60006040820190508181036000830152613bd4818561375e565b9050613be360208301846138e4565b9392505050565b600080fd5b600080fd5b60008083601f840112613c0a57613c096139a1565b5b8235905067ffffffffffffffff811115613c2757613c26613bea565b5b602083019150836020820283011115613c4357613c42613bef565b5b9250929050565b60008060208385031215613c6157613c60613642565b5b600083013567ffffffffffffffff811115613c7f57613c7e613647565b5b613c8b85828601613bf4565b92509250509250929050565b600060208284031215613cad57613cac613642565b5b6000613cbb8482850161388f565b91505092915050565b600081519050919050565b600082825260208201905092915050565b6000819050602082019050919050565b600082825260208201905092915050565b6000613d0c82613707565b613d168185613cf0565b9350613d26818560208601613723565b613d2f8161374d565b840191505092915050565b6000613d468383613d01565b905092915050565b6000602082019050919050565b6000613d6682613cc4565b613d708185613ccf565b935083602082028501613d8285613ce0565b8060005b85811015613dbe5784840389528151613d9f8582613d3a565b9450613daa83613d4e565b925060208a01995050600181019050613d86565b50829750879550505050505092915050565b60006020820190508181036000830152613dea8184613d5b565b905092915050565b60008060408385031215613e0957613e08613642565b5b6000613e178582860161388f565b9250506020613e2885828601613b78565b9150509250929050565b600067ffffffffffffffff821115613e4d57613e4c6139ab565b5b613e568261374d565b9050602081019050919050565b6000613e76613e7184613e32565b613a0b565b905082815260208101848484011115613e9257613e916139a6565b5b613e9d848285613a57565b509392505050565b600082601f830112613eba57613eb96139a1565b5b8135613eca848260208601613e63565b91505092915050565b60008060008060808587031215613eed57613eec613642565b5b6000613efb8782880161388f565b9450506020613f0c8782880161388f565b9350506040613f1d878288016137da565b925050606085013567ffffffffffffffff811115613f3e57613f3d613647565b5b613f4a87828801613ea5565b91505092959194509250565b600060208284031215613f6c57613f6b613642565b5b600082013567ffffffffffffffff811115613f8a57613f89613647565b5b613f9684828501613aa8565b91505092915050565b60008060408385031215613fb657613fb5613642565b5b6000613fc48582860161388f565b9250506020613fd58582860161388f565b9150509250929050565b60008060008060808587031215613ff957613ff8613642565b5b60006140078782880161388f565b945050602085013567ffffffffffffffff81111561402857614027613647565b5b61403487828801613aa8565b9350506040614045878288016137da565b925050606085013567ffffffffffffffff81111561406657614065613647565b5b61407287828801613aa8565b91505092959194509250565b7f4e487b7100000000000000000000000000000000000000000000000000000000600052602260045260246000fd5b600060028204905060018216806140c557607f821691505b6020821081036140d8576140d761407e565b5b50919050565b7f596f7520617265206e6f7420746865206f776e65720000000000000000000000600082015250565b6000614114601583613712565b915061411f826140de565b602082019050919050565b6000602082019050818103600083015261414381614107565b9050919050565b7f52656e6577616c20706572696f64206d7573742062652067726561746572207460008201527f68616e2030000000000000000000000000000000000000000000000000000000602082015250565b60006141a6602583613712565b91506141b18261414a565b604082019050919050565b600060208201905081810360008301526141d581614199565b9050919050565b7f4e487b7100000000000000000000000000000000000000000000000000000000600052601160045260246000fd5b6000614216826137b9565b9150614221836137b9565b925082820261422f816137b9565b91508282048414831517614246576142456141dc565b5b5092915050565b7f496e73756666696369656e74207061796d656e74000000000000000000000000600082015250565b6000614283601483613712565b915061428e8261424d565b602082019050919050565b600060208201905081810360008301526142b281614276565b9050919050565b60006142c4826137b9565b91506142cf836137b9565b92508282019050808211156142e7576142e66141dc565b5b92915050565b60008190508160005260206000209050919050565b6000815461430f816140ad565b6143198186613712565b94506001821660008114614334576001811461434a5761437d565b60ff19831686528115156020028601935061437d565b614353856142ed565b60005b8381101561437557815481890152600182019150602081019050614356565b808801955050505b50505092915050565b600060408201905081810360008301526143a08185614302565b90506143af60208301846138e4565b9392505050565b60006060820190506143cb600083018661384e565b6143d860208301856138e4565b6143e5604083018461384e565b949350505050565b7f5075626c6963206d696e74206e6f742061637469766520796574000000000000600082015250565b6000614423601a83613712565b915061442e826143ed565b602082019050919050565b6000602082019050818103600083015261445281614416565b9050919050565b600060408201905061446e600083018561384e565b61447b60208301846138e4565b9392505050565b7f4561726c79206d696e74206973206e6f74206163746976650000000000000000600082015250565b60006144b8601883613712565b91506144c382614482565b602082019050919050565b600060208201905081810360008301526144e7816144ab565b9050919050565b7f4e6f74206f6e20616c6c6f776c69737400000000000000000000000000000000600082015250565b6000614524601083613712565b915061452f826144ee565b602082019050919050565b6000602082019050818103600083015261455381614517565b9050919050565b7f4e487b7100000000000000000000000000000000000000000000000000000000600052603260045260246000fd5b6000614594826137b9565b91507fffffffffffffffffffffffffffffffffffffffffffffffffffffffffffffffff82036145c6576145c56141dc565b5b600182019050919050565b600081905092915050565b60006145e782613707565b6145f181856145d1565b9350614601818560208601613723565b80840191505092915050565b600061461982846145dc565b915081905092915050565b7f4e616d65206e6f74207265676973746572656400000000000000000000000000600082015250565b600061465a601383613712565b915061466582614624565b602082019050919050565b600060208201905081810360008301526146898161464d565b9050919050565b7f496e76616c696420726563697069656e74206164647265737300000000000000600082015250565b60006146c6601983613712565b91506146d182614690565b602082019050919050565b600060208201905081810360008301526146f5816146b9565b9050919050565b7f4e616d652069732063757272656e746c792072656e7465640000000000000000600082015250565b6000614732601883613712565b915061473d826146fc565b602082019050919050565b6000602082019050818103600083015261476181614725565b9050919050565b60006020601f8301049050919050565b600082821b905092915050565b6000600883026147b57fffffffffffffffffffffffffffffffffffffffffffffffffffffffffffffffff82614778565b6147bf8683614778565b95508019841693508086168417925050509392505050565b6000819050919050565b60006147fc6147f76147f2846137b9565b6147d7565b6137b9565b9050919050565b6000819050919050565b614816836147e1565b61482a61482282614803565b848454614785565b825550505050565b600090565b61483f614832565b61484a81848461480d565b505050565b5b8181101561486e57614863600082614837565b600181019050614850565b5050565b601f8211156148b357614884816142ed565b61488d84614768565b8101602085101561489c578190505b6148b06148a885614768565b83018261484f565b50505b505050565b600082821c905092915050565b60006148d6600019846008026148b8565b1980831691505092915050565b60006148ef83836148c5565b9150826002028217905092915050565b61490882613707565b67ffffffffffffffff811115614921576149206139ab565b5b61492b82546140ad565b614936828285614872565b600060209050601f8311600181146149695760008415614957578287015190505b61496185826148e3565b8655506149c9565b601f198416614977866142ed565b60005b8281101561499f5784890151825560018201915060208501945060208101905061497a565b868310156149bc57848901516149b8601f8916826148c5565b8355505b6001600288020188555050505b505050505050565b7f4d696e696d756d206f776e65727368697020706572696f642069732031206d6f60008201527f6e74680000000000000000000000000000000000000000000000000000000000602082015250565b6000614a2d602383613712565b9150614a38826149d1565b604082019050919050565b60006020820190508181036000830152614a5c81614a20565b9050919050565b7f496e76616c6964206e616d6520666f726d617400000000000000000000000000600082015250565b6000614a99601383613712565b9150614aa482614a63565b602082019050919050565b60006020820190508181036000830152614ac881614a8c565b9050919050565b7f4e616d652069732063757272656e746c79206f776e6564000000000000000000600082015250565b6000614b05601783613712565b9150614b1082614acf565b602082019050919050565b60006020820190508181036000830152614b3481614af8565b9050919050565b600081519050919050565b600082825260208201905092915050565b6000614b6282614b3b565b614b6c8185614b46565b9350614b7c818560208601613723565b614b858161374d565b840191505092915050565b6000608082019050614ba5600083018761384e565b614bb2602083018661384e565b614bbf60408301856138e4565b8181036060830152614bd18184614b57565b905095945050505050565b600081519050614beb81613678565b92915050565b600060208284031215614c0757614c06613642565b5b6000614c1584828501614bdc565b91505092915050565b6000614c2a82856145dc565b9150614c3682846145dc565b91508190509392505050565b6000614c4d826137b9565b9150614c58836137b9565b9250828203905081811115614c7057614c6f6141dc565b5b92915050565b7f4e487b7100000000000000000000000000000000000000000000000000000000600052603160045260246000fd5b7f4e487b7100000000000000000000000000000000000000000000000000000000600052601260045260246000fdfea2646970667358221220787f9ba18d099fc385925db07336fd9650a1bd9911a762c1d470c401fc42f51264736f6c63430008180033",
  "linkReferences": {},
  "deployedLinkReferences": {}
}