{
  "_format": "hh-sol-artifact-1",
  "contractName": "Peaqnames",
  "sourceName": "contracts/Peaqnames.sol",
  "abi": [
    {
      "inputs": [],
      "stateMutability": "nonpayable",
      "type": "constructor"
    },
    {
      "inputs": [],
      "name": "ERC721EnumerableForbiddenBatchMint",
      "type": "error"
    },
    {
      "inputs": [
        {
          "internalType": "address",
          "name": "sender",
          "type": "address"
        },
        {
          "internalType": "uint256",
          "name": "tokenId",
          "type": "uint256"
        },
        {
          "internalType": "address",
          "name": "owner",
          "type": "address"
        }
      ],
      "name": "ERC721IncorrectOwner",
      "type": "error"
    },
    {
      "inputs": [
        {
          "internalType": "address",
          "name": "operator",
          "type": "address"
        },
        {
          "internalType": "uint256",
          "name": "tokenId",
          "type": "uint256"
        }
      ],
      "name": "ERC721InsufficientApproval",
      "type": "error"
    },
    {
      "inputs": [
        {
          "internalType": "address",
          "name": "approver",
          "type": "address"
        }
      ],
      "name": "ERC721InvalidApprover",
      "type": "error"
    },
    {
      "inputs": [
        {
          "internalType": "address",
          "name": "operator",
          "type": "address"
        }
      ],
      "name": "ERC721InvalidOperator",
      "type": "error"
    },
    {
      "inputs": [
        {
          "internalType": "address",
          "name": "owner",
          "type": "address"
        }
      ],
      "name": "ERC721InvalidOwner",
      "type": "error"
    },
    {
      "inputs": [
        {
          "internalType": "address",
          "name": "receiver",
          "type": "address"
        }
      ],
      "name": "ERC721InvalidReceiver",
      "type": "error"
    },
    {
      "inputs": [
        {
          "internalType": "address",
          "name": "sender",
          "type": "address"
        }
      ],
      "name": "ERC721InvalidSender",
      "type": "error"
    },
    {
      "inputs": [
        {
          "internalType": "uint256",
          "name": "tokenId",
          "type": "uint256"
        }
      ],
      "name": "ERC721NonexistentToken",
      "type": "error"
    },
    {
      "inputs": [
        {
          "internalType": "address",
          "name": "owner",
          "type": "address"
        },
        {
          "internalType": "uint256",
          "name": "index",
          "type": "uint256"
        }
      ],
      "name": "ERC721OutOfBoundsIndex",
      "type": "error"
    },
    {
      "inputs": [],
      "name": "EnforcedPause",
      "type": "error"
    },
    {
      "inputs": [],
      "name": "ExpectedPause",
      "type": "error"
    },
    {
      "inputs": [
        {
          "internalType": "address",
          "name": "owner",
          "type": "address"
        }
      ],
      "name": "OwnableInvalidOwner",
      "type": "error"
    },
    {
      "inputs": [
        {
          "internalType": "address",
          "name": "account",
          "type": "address"
        }
      ],
      "name": "OwnableUnauthorizedAccount",
      "type": "error"
    },
    {
      "anonymous": false,
      "inputs": [
        {
          "indexed": true,
          "internalType": "address",
          "name": "user",
          "type": "address"
        }
      ],
      "name": "AddedToAllowlist",
      "type": "event"
    },
    {
      "anonymous": false,
      "inputs": [
        {
          "indexed": true,
          "internalType": "address",
          "name": "owner",
          "type": "address"
        },
        {
          "indexed": true,
          "internalType": "address",
          "name": "approved",
          "type": "address"
        },
        {
          "indexed": true,
          "internalType": "uint256",
          "name": "tokenId",
          "type": "uint256"
        }
      ],
      "name": "Approval",
      "type": "event"
    },
    {
      "anonymous": false,
      "inputs": [
        {
          "indexed": true,
          "internalType": "address",
          "name": "owner",
          "type": "address"
        },
        {
          "indexed": true,
          "internalType": "address",
          "name": "operator",
          "type": "address"
        },
        {
          "indexed": false,
          "internalType": "bool",
          "name": "approved",
          "type": "bool"
        }
      ],
      "name": "ApprovalForAll",
      "type": "event"
    },
    {
      "anonymous": false,
      "inputs": [
        {
          "indexed": false,
          "internalType": "uint256",
          "name": "_fromTokenId",
          "type": "uint256"
        },
        {
          "indexed": false,
          "internalType": "uint256",
          "name": "_toTokenId",
          "type": "uint256"
        }
      ],
      "name": "BatchMetadataUpdate",
      "type": "event"
    },
    {
      "anonymous": false,
      "inputs": [
        {
          "indexed": true,
          "internalType": "address",
          "name": "owner",
          "type": "address"
        },
        {
          "indexed": false,
          "internalType": "uint256",
          "name": "tokenId",
          "type": "uint256"
        }
      ],
      "name": "DefaultNameSet",
      "type": "event"
    },
    {
      "anonymous": false,
      "inputs": [
        {
          "indexed": false,
          "internalType": "uint256",
          "name": "newLimit",
          "type": "uint256"
        }
      ],
      "name": "EarlyMintLimitUpdated",
      "type": "event"
    },
    {
      "anonymous": false,
      "inputs": [
        {
          "indexed": false,
          "internalType": "uint256",
          "name": "newFee",
          "type": "uint256"
        }
      ],
      "name": "FeeUpdated",
      "type": "event"
    },
    {
      "anonymous": false,
      "inputs": [
        {
          "indexed": false,
          "internalType": "uint256",
          "name": "_tokenId",
          "type": "uint256"
        }
      ],
      "name": "MetadataUpdate",
      "type": "event"
    },
    {
      "anonymous": false,
      "inputs": [
        {
          "indexed": true,
          "internalType": "address",
          "name": "renter",
          "type": "address"
        },
        {
          "indexed": true,
          "internalType": "uint256",
          "name": "tokenId",
          "type": "uint256"
        },
        {
          "indexed": false,
          "internalType": "string",
          "name": "name",
          "type": "string"
        },
        {
          "indexed": false,
          "internalType": "uint256",
          "name": "expiration",
          "type": "uint256"
        }
      ],
      "name": "NameMinted",
      "type": "event"
    },
    {
      "anonymous": false,
      "inputs": [
        {
          "indexed": true,
          "internalType": "address",
          "name": "recipient",
          "type": "address"
        },
        {
          "indexed": true,
          "internalType": "uint256",
          "name": "tokenId",
          "type": "uint256"
        },
        {
          "indexed": false,
          "internalType": "string",
          "name": "name",
          "type": "string"
        },
        {
          "indexed": false,
          "internalType": "uint256",
          "name": "expiration",
          "type": "uint256"
        }
      ],
      "name": "NameMintedByOwner",
      "type": "event"
    },
    {
      "anonymous": false,
      "inputs": [
        {
          "indexed": true,
          "internalType": "address",
          "name": "previousOwner",
          "type": "address"
        },
        {
          "indexed": true,
          "internalType": "address",
          "name": "newOwner",
          "type": "address"
        }
      ],
      "name": "OwnershipTransferred",
      "type": "event"
    },
    {
      "anonymous": false,
      "inputs": [
        {
          "indexed": false,
          "internalType": "address",
          "name": "account",
          "type": "address"
        }
      ],
      "name": "Paused",
      "type": "event"
    },
    {
      "anonymous": false,
      "inputs": [
        {
          "indexed": true,
          "internalType": "address",
          "name": "from",
          "type": "address"
        },
        {
          "indexed": true,
          "internalType": "address",
          "name": "to",
          "type": "address"
        },
        {
          "indexed": true,
          "internalType": "uint256",
          "name": "tokenId",
          "type": "uint256"
        }
      ],
      "name": "Transfer",
      "type": "event"
    },
    {
      "anonymous": false,
      "inputs": [
        {
          "indexed": false,
          "internalType": "address",
          "name": "account",
          "type": "address"
        }
      ],
      "name": "Unpaused",
      "type": "event"
    },
    {
      "inputs": [
        {
          "internalType": "address[]",
          "name": "_users",
          "type": "address[]"
        }
      ],
      "name": "addToAllowlist",
      "outputs": [],
      "stateMutability": "nonpayable",
      "type": "function"
    },
    {
      "inputs": [
        {
          "internalType": "address",
          "name": "",
          "type": "address"
        }
      ],
      "name": "allowlist",
      "outputs": [
        {
          "internalType": "bool",
          "name": "",
          "type": "bool"
        }
      ],
      "stateMutability": "view",
      "type": "function"
    },
    {
      "inputs": [
        {
          "internalType": "address",
          "name": "to",
          "type": "address"
        },
        {
          "internalType": "uint256",
          "name": "tokenId",
          "type": "uint256"
        }
      ],
      "name": "approve",
      "outputs": [],
      "stateMutability": "nonpayable",
      "type": "function"
    },
    {
      "inputs": [
        {
          "internalType": "address",
          "name": "owner",
          "type": "address"
        }
      ],
      "name": "balanceOf",
      "outputs": [
        {
          "internalType": "uint256",
          "name": "",
          "type": "uint256"
        }
      ],
      "stateMutability": "view",
      "type": "function"
    },
    {
      "inputs": [
        {
          "internalType": "address",
          "name": "",
          "type": "address"
        }
      ],
      "name": "defaultNames",
      "outputs": [
        {
          "internalType": "uint256",
          "name": "",
          "type": "uint256"
        }
      ],
      "stateMutability": "view",
      "type": "function"
    },
    {
      "inputs": [
        {
          "internalType": "string",
          "name": "_name",
          "type": "string"
        },
        {
          "internalType": "uint256",
          "name": "_years",
          "type": "uint256"
        },
        {
          "internalType": "string",
          "name": "_uri",
          "type": "string"
        },
        {
          "internalType": "bool",
          "name": "setAsDefault",
          "type": "bool"
        }
      ],
      "name": "earlyMint",
      "outputs": [],
      "stateMutability": "payable",
      "type": "function"
    },
    {
      "inputs": [
        {
          "internalType": "address",
          "name": "",
          "type": "address"
        }
      ],
      "name": "earlyMintCount",
      "outputs": [
        {
          "internalType": "uint256",
          "name": "",
          "type": "uint256"
        }
      ],
      "stateMutability": "view",
      "type": "function"
    },
    {
      "inputs": [],
      "name": "earlyMintLimit",
      "outputs": [
        {
          "internalType": "uint256",
          "name": "",
          "type": "uint256"
        }
      ],
      "stateMutability": "view",
      "type": "function"
    },
    {
      "inputs": [],
      "name": "flatFeePerYear",
      "outputs": [
        {
          "internalType": "uint256",
          "name": "",
          "type": "uint256"
        }
      ],
      "stateMutability": "view",
      "type": "function"
    },
    {
      "inputs": [
        {
          "internalType": "uint256",
          "name": "tokenId",
          "type": "uint256"
        }
      ],
      "name": "getApproved",
      "outputs": [
        {
          "internalType": "address",
          "name": "",
          "type": "address"
        }
      ],
      "stateMutability": "view",
      "type": "function"
    },
    {
      "inputs": [
        {
          "internalType": "address",
          "name": "owner",
          "type": "address"
        }
      ],
      "name": "getDefaultName",
      "outputs": [
        {
          "internalType": "string",
          "name": "",
          "type": "string"
        }
      ],
      "stateMutability": "view",
      "type": "function"
    },
    {
      "inputs": [
        {
          "internalType": "address",
          "name": "owner",
          "type": "address"
        }
      ],
      "name": "getDefaultToken",
      "outputs": [
        {
          "internalType": "uint256",
          "name": "tokenId",
          "type": "uint256"
        },
        {
          "internalType": "string",
          "name": "name",
          "type": "string"
        },
        {
          "internalType": "uint256",
          "name": "expiration",
          "type": "uint256"
        }
      ],
      "stateMutability": "view",
      "type": "function"
    },
    {
      "inputs": [
        {
          "internalType": "uint256",
          "name": "tokenId",
          "type": "uint256"
        }
      ],
      "name": "getExpiration",
      "outputs": [
        {
          "internalType": "uint256",
          "name": "",
          "type": "uint256"
        }
      ],
      "stateMutability": "view",
      "type": "function"
    },
    {
      "inputs": [
        {
          "internalType": "address",
          "name": "owner",
          "type": "address"
        },
        {
          "internalType": "address",
          "name": "operator",
          "type": "address"
        }
      ],
      "name": "isApprovedForAll",
      "outputs": [
        {
          "internalType": "bool",
          "name": "",
          "type": "bool"
        }
      ],
      "stateMutability": "view",
      "type": "function"
    },
    {
      "inputs": [
        {
          "internalType": "uint256",
          "name": "tokenId",
          "type": "uint256"
        }
      ],
      "name": "isNameAvailable",
      "outputs": [
        {
          "internalType": "bool",
          "name": "",
          "type": "bool"
        }
      ],
      "stateMutability": "view",
      "type": "function"
    },
    {
      "inputs": [
        {
          "internalType": "string",
          "name": "_name",
          "type": "string"
        }
      ],
      "name": "isNameRegistered",
      "outputs": [
        {
          "internalType": "bool",
          "name": "",
          "type": "bool"
        }
      ],
      "stateMutability": "view",
      "type": "function"
    },
    {
      "inputs": [
        {
          "internalType": "string",
          "name": "_name",
          "type": "string"
        },
        {
          "internalType": "uint256",
          "name": "_years",
          "type": "uint256"
        },
        {
          "internalType": "string",
          "name": "_uri",
          "type": "string"
        },
        {
          "internalType": "bool",
          "name": "setAsDefault",
          "type": "bool"
        }
      ],
      "name": "mintName",
      "outputs": [],
      "stateMutability": "payable",
      "type": "function"
    },
    {
      "inputs": [],
      "name": "name",
      "outputs": [
        {
          "internalType": "string",
          "name": "",
          "type": "string"
        }
      ],
      "stateMutability": "view",
      "type": "function"
    },
    {
      "inputs": [
        {
          "internalType": "string",
          "name": "",
          "type": "string"
        }
      ],
      "name": "nameToTokenId",
      "outputs": [
        {
          "internalType": "uint256",
          "name": "",
          "type": "uint256"
        }
      ],
      "stateMutability": "view",
      "type": "function"
    },
    {
      "inputs": [
        {
          "internalType": "uint256",
          "name": "",
          "type": "uint256"
        }
      ],
      "name": "names",
      "outputs": [
        {
          "internalType": "string",
          "name": "name",
          "type": "string"
        },
        {
          "internalType": "uint256",
          "name": "expiration",
          "type": "uint256"
        }
      ],
      "stateMutability": "view",
      "type": "function"
    },
    {
      "inputs": [],
      "name": "nextTokenId",
      "outputs": [
        {
          "internalType": "uint256",
          "name": "",
          "type": "uint256"
        }
      ],
      "stateMutability": "view",
      "type": "function"
    },
    {
      "inputs": [],
      "name": "owner",
      "outputs": [
        {
          "internalType": "address",
          "name": "",
          "type": "address"
        }
      ],
      "stateMutability": "view",
      "type": "function"
    },
    {
      "inputs": [
        {
          "internalType": "uint256",
          "name": "tokenId",
          "type": "uint256"
        }
      ],
      "name": "ownerOf",
      "outputs": [
        {
          "internalType": "address",
          "name": "",
          "type": "address"
        }
      ],
      "stateMutability": "view",
      "type": "function"
    },
    {
      "inputs": [],
      "name": "pause",
      "outputs": [],
      "stateMutability": "nonpayable",
      "type": "function"
    },
    {
      "inputs": [],
      "name": "paused",
      "outputs": [
        {
          "internalType": "bool",
          "name": "",
          "type": "bool"
        }
      ],
      "stateMutability": "view",
      "type": "function"
    },
    {
      "inputs": [
        {
          "internalType": "uint256",
          "name": "tokenId",
          "type": "uint256"
        },
        {
          "internalType": "uint256",
          "name": "_years",
          "type": "uint256"
        }
      ],
      "name": "renewName",
      "outputs": [],
      "stateMutability": "payable",
      "type": "function"
    },
    {
      "inputs": [],
      "name": "renounceOwnership",
      "outputs": [],
      "stateMutability": "nonpayable",
      "type": "function"
    },
    {
      "inputs": [
        {
          "internalType": "address",
          "name": "_recipient",
          "type": "address"
        },
        {
          "internalType": "string",
          "name": "_name",
          "type": "string"
        },
        {
          "internalType": "uint256",
          "name": "_years",
          "type": "uint256"
        },
        {
          "internalType": "string",
          "name": "_uri",
          "type": "string"
        },
        {
          "internalType": "bool",
          "name": "setAsDefault",
          "type": "bool"
        }
      ],
      "name": "reserveName",
      "outputs": [],
      "stateMutability": "nonpayable",
      "type": "function"
    },
    {
      "inputs": [
        {
          "internalType": "string",
          "name": "_name",
          "type": "string"
        }
      ],
      "name": "resolveName",
      "outputs": [
        {
          "internalType": "address",
          "name": "",
          "type": "address"
        }
      ],
      "stateMutability": "view",
      "type": "function"
    },
    {
      "inputs": [
        {
          "internalType": "address",
          "name": "from",
          "type": "address"
        },
        {
          "internalType": "address",
          "name": "to",
          "type": "address"
        },
        {
          "internalType": "uint256",
          "name": "tokenId",
          "type": "uint256"
        }
      ],
      "name": "safeTransferFrom",
      "outputs": [],
      "stateMutability": "nonpayable",
      "type": "function"
    },
    {
      "inputs": [
        {
          "internalType": "address",
          "name": "from",
          "type": "address"
        },
        {
          "internalType": "address",
          "name": "to",
          "type": "address"
        },
        {
          "internalType": "uint256",
          "name": "tokenId",
          "type": "uint256"
        },
        {
          "internalType": "bytes",
          "name": "data",
          "type": "bytes"
        }
      ],
      "name": "safeTransferFrom",
      "outputs": [],
      "stateMutability": "nonpayable",
      "type": "function"
    },
    {
      "inputs": [
        {
          "internalType": "address",
          "name": "operator",
          "type": "address"
        },
        {
          "internalType": "bool",
          "name": "approved",
          "type": "bool"
        }
      ],
      "name": "setApprovalForAll",
      "outputs": [],
      "stateMutability": "nonpayable",
      "type": "function"
    },
    {
      "inputs": [
        {
          "internalType": "uint256",
          "name": "tokenId",
          "type": "uint256"
        }
      ],
      "name": "setDefaultName",
      "outputs": [],
      "stateMutability": "nonpayable",
      "type": "function"
    },
    {
      "inputs": [
        {
          "internalType": "uint256",
          "name": "_newLimit",
          "type": "uint256"
        }
      ],
      "name": "setEarlyMintLimit",
      "outputs": [],
      "stateMutability": "nonpayable",
      "type": "function"
    },
    {
      "inputs": [
        {
          "internalType": "uint256",
          "name": "_fee",
          "type": "uint256"
        }
      ],
      "name": "setFlatFeePerYear",
      "outputs": [],
      "stateMutability": "nonpayable",
      "type": "function"
    },
    {
      "inputs": [
        {
          "internalType": "bytes4",
          "name": "interfaceId",
          "type": "bytes4"
        }
      ],
      "name": "supportsInterface",
      "outputs": [
        {
          "internalType": "bool",
          "name": "",
          "type": "bool"
        }
      ],
      "stateMutability": "view",
      "type": "function"
    },
    {
      "inputs": [],
      "name": "symbol",
      "outputs": [
        {
          "internalType": "string",
          "name": "",
          "type": "string"
        }
      ],
      "stateMutability": "view",
      "type": "function"
    },
    {
      "inputs": [
        {
          "internalType": "uint256",
          "name": "index",
          "type": "uint256"
        }
      ],
      "name": "tokenByIndex",
      "outputs": [
        {
          "internalType": "uint256",
          "name": "",
          "type": "uint256"
        }
      ],
      "stateMutability": "view",
      "type": "function"
    },
    {
      "inputs": [
        {
          "internalType": "address",
          "name": "owner",
          "type": "address"
        },
        {
          "internalType": "uint256",
          "name": "index",
          "type": "uint256"
        }
      ],
      "name": "tokenOfOwnerByIndex",
      "outputs": [
        {
          "internalType": "uint256",
          "name": "",
          "type": "uint256"
        }
      ],
      "stateMutability": "view",
      "type": "function"
    },
    {
      "inputs": [
        {
          "internalType": "uint256",
          "name": "tokenId",
          "type": "uint256"
        }
      ],
      "name": "tokenURI",
      "outputs": [
        {
          "internalType": "string",
          "name": "",
          "type": "string"
        }
      ],
      "stateMutability": "view",
      "type": "function"
    },
    {
      "inputs": [],
      "name": "totalSupply",
      "outputs": [
        {
          "internalType": "uint256",
          "name": "",
          "type": "uint256"
        }
      ],
      "stateMutability": "view",
      "type": "function"
    },
    {
      "inputs": [
        {
          "internalType": "address",
          "name": "from",
          "type": "address"
        },
        {
          "internalType": "address",
          "name": "to",
          "type": "address"
        },
        {
          "internalType": "uint256",
          "name": "tokenId",
          "type": "uint256"
        }
      ],
      "name": "transferFrom",
      "outputs": [],
      "stateMutability": "nonpayable",
      "type": "function"
    },
    {
      "inputs": [
        {
          "internalType": "address",
          "name": "newOwner",
          "type": "address"
        }
      ],
      "name": "transferOwnership",
      "outputs": [],
      "stateMutability": "nonpayable",
      "type": "function"
    },
    {
      "inputs": [],
      "name": "unpause",
      "outputs": [],
      "stateMutability": "nonpayable",
      "type": "function"
    },
    {
      "inputs": [],
      "name": "withdraw",
      "outputs": [],
      "stateMutability": "nonpayable",
      "type": "function"
    }
  ],
  "bytecode": "0x608060405266038d7ea4c68000600f5560036012553480156200002157600080fd5b50336040518060400160405280600981526020017f506561716e616d657300000000000000000000000000000000000000000000008152506040518060400160405280600981526020017f504541514e414d455300000000000000000000000000000000000000000000008152508160009081620000a0919062000593565b508060019081620000b2919062000593565b505050600073ffffffffffffffffffffffffffffffffffffffff168173ffffffffffffffffffffffffffffffffffffffff16036200012a5760006040517f1e4fbdf7000000000000000000000000000000000000000000000000000000008152600401620001219190620006bf565b60405180910390fd5b6200013b816200017560201b60201c565b506000600b60146101000a81548160ff0219169083151502179055506001600e819055506200016f6200023b60201b60201c565b620006dc565b6000600b60009054906101000a900473ffffffffffffffffffffffffffffffffffffffff16905081600b60006101000a81548173ffffffffffffffffffffffffffffffffffffffff021916908373ffffffffffffffffffffffffffffffffffffffff1602179055508173ffffffffffffffffffffffffffffffffffffffff168173ffffffffffffffffffffffffffffffffffffffff167f8be0079c531659141344cd1fd0a4f28419497f9722a3daafe3b4186f6b6457e060405160405180910390a35050565b6200024b620002b060201b60201c565b6001600b60146101000a81548160ff0219169083151502179055507f62e78cea01bee320cd4e420270b5ea74000d11b0c9f74754ebdbfc544b05a25862000297620002fa60201b60201c565b604051620002a69190620006bf565b60405180910390a1565b620002c06200030260201b60201c565b15620002f8576040517fd93c066500000000000000000000000000000000000000000000000000000000815260040160405180910390fd5b565b600033905090565b6000600b60149054906101000a900460ff16905090565b600081519050919050565b7f4e487b7100000000000000000000000000000000000000000000000000000000600052604160045260246000fd5b7f4e487b7100000000000000000000000000000000000000000000000000000000600052602260045260246000fd5b600060028204905060018216806200039b57607f821691505b602082108103620003b157620003b062000353565b5b50919050565b60008190508160005260206000209050919050565b60006020601f8301049050919050565b600082821b905092915050565b6000600883026200041b7fffffffffffffffffffffffffffffffffffffffffffffffffffffffffffffffff82620003dc565b620004278683620003dc565b95508019841693508086168417925050509392505050565b6000819050919050565b6000819050919050565b6000620004746200046e62000468846200043f565b62000449565b6200043f565b9050919050565b6000819050919050565b620004908362000453565b620004a86200049f826200047b565b848454620003e9565b825550505050565b600090565b620004bf620004b0565b620004cc81848462000485565b505050565b5b81811015620004f457620004e8600082620004b5565b600181019050620004d2565b5050565b601f82111562000543576200050d81620003b7565b6200051884620003cc565b8101602085101562000528578190505b620005406200053785620003cc565b830182620004d1565b50505b505050565b600082821c905092915050565b6000620005686000198460080262000548565b1980831691505092915050565b600062000583838362000555565b9150826002028217905092915050565b6200059e8262000319565b67ffffffffffffffff811115620005ba57620005b962000324565b5b620005c6825462000382565b620005d3828285620004f8565b600060209050601f8311600181146200060b5760008415620005f6578287015190505b62000602858262000575565b86555062000672565b601f1984166200061b86620003b7565b60005b8281101562000645578489015182556001820191506020850194506020810190506200061e565b8683101562000665578489015162000661601f89168262000555565b8355505b6001600288020188555050505b505050505050565b600073ffffffffffffffffffffffffffffffffffffffff82169050919050565b6000620006a7826200067a565b9050919050565b620006b9816200069a565b82525050565b6000602082019050620006d66000830184620006ae565b92915050565b6153bb80620006ec6000396000f3fe6080604052600436106102725760003560e01c8063715018a61161014f578063bc19bce5116100c1578063dd0012541161007a578063dd001254146109a7578063e1a6b65e146109e4578063e985e9c514610a0d578063f2fde38b14610a4a578063f8e6fdf414610a73578063ffb1034b14610a8f57610272565b8063bc19bce514610882578063c0a8c9cd146108bf578063c6021c5a146108db578063c87b56dd14610904578063ceb21fd814610941578063dc70f13b1461096a57610272565b806394ae93b81161011357806394ae93b81461074e57806395d89b411461078b578063a05b775f146107b6578063a22cb465146107f3578063a7cd52cb1461081c578063b88d4fde1461085957610272565b8063715018a61461069f57806375794a3c146106b65780637fae4697146106e15780638456cb591461070c5780638da5cb5b1461072357610272565b80633ccfd60b116101e85780635207c273116101ac5780635207c273146105575780635c975abb1461058057806362ac7a84146105ab5780636352211e146105e857806369ba0f271461062557806370a082311461066257610272565b80633ccfd60b146104855780633f4ba83a1461049c57806342842e0e146104b35780634622ab03146104dc5780634f6ccce71461051a57610272565b80631d5489741161023a5780631d54897414610370578063237013a61461038c57806323b872dd146103cb5780632e5ac601146103f45780632f745c591461041f578063384b84ed1461045c57610272565b806301ffc9a71461027757806306fdde03146102b4578063081812fc146102df578063095ea7b31461031c57806318160ddd14610345575b600080fd5b34801561028357600080fd5b5061029e60048036038101906102999190613d72565b610acc565b6040516102ab9190613dba565b60405180910390f35b3480156102c057600080fd5b506102c9610ade565b6040516102d69190613e65565b60405180910390f35b3480156102eb57600080fd5b5061030660048036038101906103019190613ebd565b610b70565b6040516103139190613f2b565b60405180910390f35b34801561032857600080fd5b50610343600480360381019061033e9190613f72565b610b8c565b005b34801561035157600080fd5b5061035a610ba2565b6040516103679190613fc1565b60405180910390f35b61038a60048036038101906103859190613fdc565b610baf565b005b34801561039857600080fd5b506103b360048036038101906103ae919061401c565b610d89565b6040516103c293929190614049565b60405180910390f35b3480156103d757600080fd5b506103f260048036038101906103ed9190614087565b610eeb565b005b34801561040057600080fd5b50610409610fed565b6040516104169190613fc1565b60405180910390f35b34801561042b57600080fd5b5061044660048036038101906104419190613f72565b610ff3565b6040516104539190613fc1565b60405180910390f35b34801561046857600080fd5b50610483600480360381019061047e9190613ebd565b61109c565b005b34801561049157600080fd5b5061049a6111a7565b005b3480156104a857600080fd5b506104b16111ff565b005b3480156104bf57600080fd5b506104da60048036038101906104d59190614087565b611211565b005b3480156104e857600080fd5b5061050360048036038101906104fe9190613ebd565b611231565b6040516105119291906140da565b60405180910390f35b34801561052657600080fd5b50610541600480360381019061053c9190613ebd565b6112dd565b60405161054e9190613fc1565b60405180910390f35b34801561056357600080fd5b5061057e6004803603810190610579919061416f565b611353565b005b34801561058c57600080fd5b50610595611464565b6040516105a29190613dba565b60405180910390f35b3480156105b757600080fd5b506105d260048036038101906105cd919061401c565b61147b565b6040516105df9190613fc1565b60405180910390f35b3480156105f457600080fd5b5061060f600480360381019061060a9190613ebd565b611493565b60405161061c9190613f2b565b60405180910390f35b34801561063157600080fd5b5061064c60048036038101906106479190613ebd565b6114a5565b6040516106599190613dba565b60405180910390f35b34801561066e57600080fd5b506106896004803603810190610684919061401c565b6114c7565b6040516106969190613fc1565b60405180910390f35b3480156106ab57600080fd5b506106b4611581565b005b3480156106c257600080fd5b506106cb611595565b6040516106d89190613fc1565b60405180910390f35b3480156106ed57600080fd5b506106f661159b565b6040516107039190613fc1565b60405180910390f35b34801561071857600080fd5b506107216115a1565b005b34801561072f57600080fd5b506107386115b3565b6040516107459190613f2b565b60405180910390f35b34801561075a57600080fd5b50610775600480360381019061077091906142ec565b6115dd565b6040516107829190613dba565b60405180910390f35b34801561079757600080fd5b506107a0611637565b6040516107ad9190613e65565b60405180910390f35b3480156107c257600080fd5b506107dd60048036038101906107d89190613ebd565b6116c9565b6040516107ea9190613fc1565b60405180910390f35b3480156107ff57600080fd5b5061081a60048036038101906108159190614361565b6116e9565b005b34801561082857600080fd5b50610843600480360381019061083e919061401c565b6116ff565b6040516108509190613dba565b60405180910390f35b34801561086557600080fd5b50610880600480360381019061087b9190614442565b61171f565b005b34801561088e57600080fd5b506108a960048036038101906108a491906142ec565b61173c565b6040516108b69190613f2b565b60405180910390f35b6108d960048036038101906108d491906144c5565b6117b4565b005b3480156108e757600080fd5b5061090260048036038101906108fd9190614564565b611932565b005b34801561091057600080fd5b5061092b60048036038101906109269190613ebd565b611c6e565b6040516109389190613e65565b60405180910390f35b34801561094d57600080fd5b5061096860048036038101906109639190613ebd565b611c80565b005b34801561097657600080fd5b50610991600480360381019061098c919061401c565b611d0c565b60405161099e9190613fc1565b60405180910390f35b3480156109b357600080fd5b506109ce60048036038101906109c991906142ec565b611d24565b6040516109db9190613fc1565b60405180910390f35b3480156109f057600080fd5b50610a0b6004803603810190610a069190613ebd565b611d52565b005b348015610a1957600080fd5b50610a346004803603810190610a2f9190614617565b611d9b565b604051610a419190613dba565b60405180910390f35b348015610a5657600080fd5b50610a716004803603810190610a6c919061401c565b611e2f565b005b610a8d6004803603810190610a8891906144c5565b611eb5565b005b348015610a9b57600080fd5b50610ab66004803603810190610ab1919061401c565b611ecf565b604051610ac39190613e65565b60405180910390f35b6000610ad782611fff565b9050919050565b606060008054610aed90614686565b80601f0160208091040260200160405190810160405280929190818152602001828054610b1990614686565b8015610b665780601f10610b3b57610100808354040283529160200191610b66565b820191906000526020600020905b815481529060010190602001808311610b4957829003601f168201915b5050505050905090565b6000610b7b82612060565b50610b85826120e8565b9050919050565b610b9e8282610b99612125565b61212d565b5050565b6000600880549050905090565b610bb761213f565b3373ffffffffffffffffffffffffffffffffffffffff16610bd783611493565b73ffffffffffffffffffffffffffffffffffffffff1614610c2d576040517f08c379a0000000000000000000000000000000000000000000000000000000008152600401610c2490614703565b60405180910390fd5b60018110158015610c3f5750600a8111155b610c7e576040517f08c379a0000000000000000000000000000000000000000000000000000000008152600401610c7590614795565b60405180910390fd5b600f5481610c8c91906147e4565b341015610cce576040517f08c379a0000000000000000000000000000000000000000000000000000000008152600401610cc590614872565b60405180910390fd5b60006301e1338082610ce091906147e4565b600c600085815260200190815260200160002060010154610d019190614892565b905080600c600085815260200190815260200160002060010181905550823373ffffffffffffffffffffffffffffffffffffffff167ff2ae06e4051d8da56ecb02145a01189388c74801291ba0f146561bde21ab1dc9600c600087815260200190815260200160002060000184604051610d7c92919061495f565b60405180910390a3505050565b600060606000601160008573ffffffffffffffffffffffffffffffffffffffff1673ffffffffffffffffffffffffffffffffffffffff16815260200190815260200160002054925060008303610e14576040517f08c379a0000000000000000000000000000000000000000000000000000000008152600401610e0b906149db565b60405180910390fd5b6000600c6000858152602001908152602001600020604051806040016040529081600082018054610e4490614686565b80601f0160208091040260200160405190810160405280929190818152602001828054610e7090614686565b8015610ebd5780601f10610e9257610100808354040283529160200191610ebd565b820191906000526020600020905b815481529060010190602001808311610ea057829003601f168201915b5050505050815260200160018201548152505090508381600001518260200151935093509350509193909250565b600073ffffffffffffffffffffffffffffffffffffffff168273ffffffffffffffffffffffffffffffffffffffff1603610f5d5760006040517f64a0ae92000000000000000000000000000000000000000000000000000000008152600401610f549190613f2b565b60405180910390fd5b6000610f718383610f6c612125565b612180565b90508373ffffffffffffffffffffffffffffffffffffffff168173ffffffffffffffffffffffffffffffffffffffff1614610fe7578382826040517f64283d7b000000000000000000000000000000000000000000000000000000008152600401610fde939291906149fb565b60405180910390fd5b50505050565b60125481565b6000610ffe836114c7565b82106110435782826040517fa57d13dc00000000000000000000000000000000000000000000000000000000815260040161103a929190614a32565b60405180910390fd5b600660008473ffffffffffffffffffffffffffffffffffffffff1673ffffffffffffffffffffffffffffffffffffffff168152602001908152602001600020600083815260200190815260200160002054905092915050565b3373ffffffffffffffffffffffffffffffffffffffff166110bc82611493565b73ffffffffffffffffffffffffffffffffffffffff1614611112576040517f08c379a000000000000000000000000000000000000000000000000000000000815260040161110990614aa7565b60405180910390fd5b80601160003373ffffffffffffffffffffffffffffffffffffffff1673ffffffffffffffffffffffffffffffffffffffff168152602001908152602001600020819055503373ffffffffffffffffffffffffffffffffffffffff167f74688ec004092a388b30b4b75d26881ef328851324b0abe6518df1008c6ee1378260405161119c9190613fc1565b60405180910390a250565b6111af612196565b6111b76115b3565b73ffffffffffffffffffffffffffffffffffffffff166108fc479081150290604051600060405180830381858888f193505050501580156111fc573d6000803e3d6000fd5b50565b611207612196565b61120f61221d565b565b61122c8383836040518060200160405280600081525061171f565b505050565b600c60205280600052604060002060009150905080600001805461125490614686565b80601f016020809104026020016040519081016040528092919081815260200182805461128090614686565b80156112cd5780601f106112a2576101008083540402835291602001916112cd565b820191906000526020600020905b8154815290600101906020018083116112b057829003601f168201915b5050505050908060010154905082565b60006112e7610ba2565b821061132d576000826040517fa57d13dc000000000000000000000000000000000000000000000000000000008152600401611324929190614a32565b60405180910390fd5b6008828154811061134157611340614ac7565b5b90600052602060002001549050919050565b61135b612196565b60005b8282905081101561145f5760016010600085858581811061138257611381614ac7565b5b9050602002016020810190611397919061401c565b73ffffffffffffffffffffffffffffffffffffffff1673ffffffffffffffffffffffffffffffffffffffff16815260200190815260200160002060006101000a81548160ff0219169083151502179055508282828181106113fb576113fa614ac7565b5b9050602002016020810190611410919061401c565b73ffffffffffffffffffffffffffffffffffffffff167fae6a58ee3666874547982a5c31620ca570592085a3e45d7bd52081fdd0082bc560405160405180910390a2808060010191505061135e565b505050565b6000600b60149054906101000a900460ff16905090565b60116020528060005260406000206000915090505481565b600061149e82612060565b9050919050565b6000600c60008381526020019081526020016000206001015442119050919050565b60008073ffffffffffffffffffffffffffffffffffffffff168273ffffffffffffffffffffffffffffffffffffffff160361153a5760006040517f89c62b640000000000000000000000000000000000000000000000000000000081526004016115319190613f2b565b60405180910390fd5b600360008373ffffffffffffffffffffffffffffffffffffffff1673ffffffffffffffffffffffffffffffffffffffff168152602001908152602001600020549050919050565b611589612196565b6115936000612280565b565b600e5481565b600f5481565b6115a9612196565b6115b1612346565b565b6000600b60009054906101000a900473ffffffffffffffffffffffffffffffffffffffff16905090565b600080600d836040516115f09190614b32565b908152602001604051809103902054905060008103611613576000915050611632565b61161c816123a9565b801561162e575061162c816114a5565b155b9150505b919050565b60606001805461164690614686565b80601f016020809104026020016040519081016040528092919081815260200182805461167290614686565b80156116bf5780601f10611694576101008083540402835291602001916116bf565b820191906000526020600020905b8154815290600101906020018083116116a257829003601f168201915b5050505050905090565b6000600c6000838152602001908152602001600020600101549050919050565b6116fb6116f4612125565b83836123ea565b5050565b60106020528060005260406000206000915054906101000a900460ff1681565b61172a848484610eeb565b61173684848484612559565b50505050565b600080600d8360405161174f9190614b32565b9081526020016040518091039020549050600081036117a3576040517f08c379a000000000000000000000000000000000000000000000000000000000815260040161179a90614b95565b60405180910390fd5b6117ac81611493565b915050919050565b6117bc61213f565b601060003373ffffffffffffffffffffffffffffffffffffffff1673ffffffffffffffffffffffffffffffffffffffff16815260200190815260200160002060009054906101000a900460ff16611848576040517f08c379a000000000000000000000000000000000000000000000000000000000815260040161183f90614c01565b60405180910390fd5b601254601360003373ffffffffffffffffffffffffffffffffffffffff1673ffffffffffffffffffffffffffffffffffffffff16815260200190815260200160002054106118cb576040517f08c379a00000000000000000000000000000000000000000000000000000000081526004016118c290614c6d565b60405180910390fd5b601360003373ffffffffffffffffffffffffffffffffffffffff1673ffffffffffffffffffffffffffffffffffffffff168152602001908152602001600020600081548092919061191b90614c8d565b919050555061192c84848484612710565b50505050565b61193a612196565b600073ffffffffffffffffffffffffffffffffffffffff168573ffffffffffffffffffffffffffffffffffffffff16036119a9576040517f08c379a00000000000000000000000000000000000000000000000000000000081526004016119a090614d21565b60405180910390fd5b600183101580156119bb5750600a8311155b6119fa576040517f08c379a00000000000000000000000000000000000000000000000000000000081526004016119f190614db3565b60405180910390fd5b6000600d85604051611a0c9190614b32565b908152602001604051809103902054905060008114611a7757611a2e816114a5565b611a6d576040517f08c379a0000000000000000000000000000000000000000000000000000000008152600401611a6490614e1f565b60405180910390fd5b611a7681612a6c565b5b600e6000815480929190611a8a90614c8d565b91905055905060006301e1338085611aa291906147e4565b42611aad9190614892565b9050604051806040016040528087815260200182815250600c60008481526020019081526020016000206000820151816000019081611aec9190614fd6565b506020820151816001015590505081600d87604051611b0b9190614b32565b908152602001604051809103902081905550611b278783612af2565b611b318285612beb565b8280611b7c57506000601160008973ffffffffffffffffffffffffffffffffffffffff1673ffffffffffffffffffffffffffffffffffffffff16815260200190815260200160002054145b15611c145781601160008973ffffffffffffffffffffffffffffffffffffffff1673ffffffffffffffffffffffffffffffffffffffff168152602001908152602001600020819055508673ffffffffffffffffffffffffffffffffffffffff167f74688ec004092a388b30b4b75d26881ef328851324b0abe6518df1008c6ee13783604051611c0b9190613fc1565b60405180910390a25b818773ffffffffffffffffffffffffffffffffffffffff167f49c5d94858643e3f63e30d539bc89bd7c5c18355ab01f3d5590b83b59e1a27f88884604051611c5d9291906140da565b60405180910390a350505050505050565b6060611c7982612c47565b9050919050565b611c88612196565b60008111611ccb576040517f08c379a0000000000000000000000000000000000000000000000000000000008152600401611cc2906150f4565b60405180910390fd5b806012819055507f445b6aee353b8704ca05dc61e73db2551c009aca561a8a15d7e68a7fa342dc6281604051611d019190613fc1565b60405180910390a150565b60136020528060005260406000206000915090505481565b600d818051602081018201805184825260208301602085012081835280955050505050506000915090505481565b611d5a612196565b80600f819055507f8c4d35e54a3f2ef1134138fd8ea3daee6a3c89e10d2665996babdf70261e2c7681604051611d909190613fc1565b60405180910390a150565b6000600560008473ffffffffffffffffffffffffffffffffffffffff1673ffffffffffffffffffffffffffffffffffffffff16815260200190815260200160002060008373ffffffffffffffffffffffffffffffffffffffff1673ffffffffffffffffffffffffffffffffffffffff16815260200190815260200160002060009054906101000a900460ff16905092915050565b611e37612196565b600073ffffffffffffffffffffffffffffffffffffffff168173ffffffffffffffffffffffffffffffffffffffff1603611ea95760006040517f1e4fbdf7000000000000000000000000000000000000000000000000000000008152600401611ea09190613f2b565b60405180910390fd5b611eb281612280565b50565b611ebd61213f565b611ec984848484612710565b50505050565b60606000601160008473ffffffffffffffffffffffffffffffffffffffff1673ffffffffffffffffffffffffffffffffffffffff16815260200190815260200160002054905060008103611f58576040517f08c379a0000000000000000000000000000000000000000000000000000000008152600401611f4f906149db565b60405180910390fd5b600c60008281526020019081526020016000206000018054611f7990614686565b80601f0160208091040260200160405190810160405280929190818152602001828054611fa590614686565b8015611ff25780601f10611fc757610100808354040283529160200191611ff2565b820191906000526020600020905b815481529060010190602001808311611fd557829003601f168201915b5050505050915050919050565b6000634906490660e01b7bffffffffffffffffffffffffffffffffffffffffffffffffffffffff1916827bffffffffffffffffffffffffffffffffffffffffffffffffffffffff19161480612059575061205882612d5a565b5b9050919050565b60008061206c83612dd4565b9050600073ffffffffffffffffffffffffffffffffffffffff168173ffffffffffffffffffffffffffffffffffffffff16036120df57826040517f7e2732890000000000000000000000000000000000000000000000000000000081526004016120d69190613fc1565b60405180910390fd5b80915050919050565b60006004600083815260200190815260200160002060009054906101000a900473ffffffffffffffffffffffffffffffffffffffff169050919050565b600033905090565b61213a8383836001612e11565b505050565b612147611464565b1561217e576040517fd93c066500000000000000000000000000000000000000000000000000000000815260040160405180910390fd5b565b600061218d848484612fd6565b90509392505050565b61219e612125565b73ffffffffffffffffffffffffffffffffffffffff166121bc6115b3565b73ffffffffffffffffffffffffffffffffffffffff161461221b576121df612125565b6040517f118cdaa70000000000000000000000000000000000000000000000000000000081526004016122129190613f2b565b60405180910390fd5b565b6122256130f3565b6000600b60146101000a81548160ff0219169083151502179055507f5db9ee0a495bf2e6ff9c91a7834c1ba4fdd244a5e8aa4e537bd38aeae4b073aa612269612125565b6040516122769190613f2b565b60405180910390a1565b6000600b60009054906101000a900473ffffffffffffffffffffffffffffffffffffffff16905081600b60006101000a81548173ffffffffffffffffffffffffffffffffffffffff021916908373ffffffffffffffffffffffffffffffffffffffff1602179055508173ffffffffffffffffffffffffffffffffffffffff168173ffffffffffffffffffffffffffffffffffffffff167f8be0079c531659141344cd1fd0a4f28419497f9722a3daafe3b4186f6b6457e060405160405180910390a35050565b61234e61213f565b6001600b60146101000a81548160ff0219169083151502179055507f62e78cea01bee320cd4e420270b5ea74000d11b0c9f74754ebdbfc544b05a258612392612125565b60405161239f9190613f2b565b60405180910390a1565b60008073ffffffffffffffffffffffffffffffffffffffff166123cb83612dd4565b73ffffffffffffffffffffffffffffffffffffffff1614159050919050565b600073ffffffffffffffffffffffffffffffffffffffff168273ffffffffffffffffffffffffffffffffffffffff160361245b57816040517f5b08ba180000000000000000000000000000000000000000000000000000000081526004016124529190613f2b565b60405180910390fd5b80600560008573ffffffffffffffffffffffffffffffffffffffff1673ffffffffffffffffffffffffffffffffffffffff16815260200190815260200160002060008473ffffffffffffffffffffffffffffffffffffffff1673ffffffffffffffffffffffffffffffffffffffff16815260200190815260200160002060006101000a81548160ff0219169083151502179055508173ffffffffffffffffffffffffffffffffffffffff168373ffffffffffffffffffffffffffffffffffffffff167f17307eab39ab6107e8899845ad3d59bd9653f200f220920489ca2b5937696c318360405161254c9190613dba565b60405180910390a3505050565b60008373ffffffffffffffffffffffffffffffffffffffff163b111561270a578273ffffffffffffffffffffffffffffffffffffffff1663150b7a0261259d612125565b8685856040518563ffffffff1660e01b81526004016125bf9493929190615169565b6020604051808303816000875af19250505080156125fb57506040513d601f19601f820116820180604052508101906125f891906151ca565b60015b61267f573d806000811461262b576040519150601f19603f3d011682016040523d82523d6000602084013e612630565b606091505b50600081510361267757836040517f64a0ae9200000000000000000000000000000000000000000000000000000000815260040161266e9190613f2b565b60405180910390fd5b805181602001fd5b63150b7a0260e01b7bffffffffffffffffffffffffffffffffffffffffffffffffffffffff1916817bffffffffffffffffffffffffffffffffffffffffffffffffffffffff19161461270857836040517f64a0ae920000000000000000000000000000000000000000000000000000000081526004016126ff9190613f2b565b60405180910390fd5b505b50505050565b600183101580156127225750600a8311155b612761576040517f08c379a000000000000000000000000000000000000000000000000000000000815260040161275890614db3565b60405180910390fd5b600f548361276f91906147e4565b3410156127b1576040517f08c379a00000000000000000000000000000000000000000000000000000000081526004016127a890614872565b60405180910390fd5b6127ba84613133565b6127f9576040517f08c379a00000000000000000000000000000000000000000000000000000000081526004016127f090615243565b60405180910390fd5b6000600d8560405161280b9190614b32565b9081526020016040518091039020549050600081146128765761282d816114a5565b61286c576040517f08c379a0000000000000000000000000000000000000000000000000000000008152600401612863906152af565b60405180910390fd5b61287581612a6c565b5b600e600081548092919061288990614c8d565b91905055905060006301e13380856128a191906147e4565b426128ac9190614892565b9050604051806040016040528087815260200182815250600c600084815260200190815260200160002060008201518160000190816128eb9190614fd6565b506020820151816001015590505081600d8760405161290a9190614b32565b9081526020016040518091039020819055506129263383612af2565b6129308285612beb565b828061297b57506000601160003373ffffffffffffffffffffffffffffffffffffffff1673ffffffffffffffffffffffffffffffffffffffff16815260200190815260200160002054145b15612a135781601160003373ffffffffffffffffffffffffffffffffffffffff1673ffffffffffffffffffffffffffffffffffffffff168152602001908152602001600020819055503373ffffffffffffffffffffffffffffffffffffffff167f74688ec004092a388b30b4b75d26881ef328851324b0abe6518df1008c6ee13783604051612a0a9190613fc1565b60405180910390a25b813373ffffffffffffffffffffffffffffffffffffffff167ff2ae06e4051d8da56ecb02145a01189388c74801291ba0f146561bde21ab1dc98884604051612a5c9291906140da565b60405180910390a3505050505050565b6000612a7b6000836000612180565b9050600073ffffffffffffffffffffffffffffffffffffffff168173ffffffffffffffffffffffffffffffffffffffff1603612aee57816040517f7e273289000000000000000000000000000000000000000000000000000000008152600401612ae59190613fc1565b60405180910390fd5b5050565b600073ffffffffffffffffffffffffffffffffffffffff168273ffffffffffffffffffffffffffffffffffffffff1603612b645760006040517f64a0ae92000000000000000000000000000000000000000000000000000000008152600401612b5b9190613f2b565b60405180910390fd5b6000612b7283836000612180565b9050600073ffffffffffffffffffffffffffffffffffffffff168173ffffffffffffffffffffffffffffffffffffffff1614612be65760006040517f73c6ac6e000000000000000000000000000000000000000000000000000000008152600401612bdd9190613f2b565b60405180910390fd5b505050565b80600a60008481526020019081526020016000209081612c0b9190614fd6565b507ff8e1a15aba9398e019f0b49df1a4fde98ee17ae345cb5f6b5e2c27f5033e8ce782604051612c3b9190613fc1565b60405180910390a15050565b6060612c5282612060565b506000600a60008481526020019081526020016000208054612c7390614686565b80601f0160208091040260200160405190810160405280929190818152602001828054612c9f90614686565b8015612cec5780601f10612cc157610100808354040283529160200191612cec565b820191906000526020600020905b815481529060010190602001808311612ccf57829003601f168201915b505050505090506000612cfd613274565b90506000815103612d12578192505050612d55565b600082511115612d47578082604051602001612d2f9291906152cf565b60405160208183030381529060405292505050612d55565b612d508461328b565b925050505b919050565b60007f780e9d63000000000000000000000000000000000000000000000000000000007bffffffffffffffffffffffffffffffffffffffffffffffffffffffff1916827bffffffffffffffffffffffffffffffffffffffffffffffffffffffff19161480612dcd5750612dcc826132f4565b5b9050919050565b60006002600083815260200190815260200160002060009054906101000a900473ffffffffffffffffffffffffffffffffffffffff169050919050565b8080612e4a5750600073ffffffffffffffffffffffffffffffffffffffff168273ffffffffffffffffffffffffffffffffffffffff1614155b15612f7e576000612e5a84612060565b9050600073ffffffffffffffffffffffffffffffffffffffff168373ffffffffffffffffffffffffffffffffffffffff1614158015612ec557508273ffffffffffffffffffffffffffffffffffffffff168173ffffffffffffffffffffffffffffffffffffffff1614155b8015612ed85750612ed68184611d9b565b155b15612f1a57826040517fa9fbf51f000000000000000000000000000000000000000000000000000000008152600401612f119190613f2b565b60405180910390fd5b8115612f7c57838573ffffffffffffffffffffffffffffffffffffffff168273ffffffffffffffffffffffffffffffffffffffff167f8c5be1e5ebec7d5bd14f71427d1e84f3dd0314c0f7b2291e5b200ac8c7c3b92560405160405180910390a45b505b836004600085815260200190815260200160002060006101000a81548173ffffffffffffffffffffffffffffffffffffffff021916908373ffffffffffffffffffffffffffffffffffffffff16021790555050505050565b600080612fe48585856133d6565b9050600073ffffffffffffffffffffffffffffffffffffffff168173ffffffffffffffffffffffffffffffffffffffff160361302857613023846135f0565b613067565b8473ffffffffffffffffffffffffffffffffffffffff168173ffffffffffffffffffffffffffffffffffffffff1614613066576130658185613639565b5b5b600073ffffffffffffffffffffffffffffffffffffffff168573ffffffffffffffffffffffffffffffffffffffff16036130a9576130a48461379a565b6130e8565b8473ffffffffffffffffffffffffffffffffffffffff168173ffffffffffffffffffffffffffffffffffffffff16146130e7576130e6858561386b565b5b5b809150509392505050565b6130fb611464565b613131576040517f8dfc202b00000000000000000000000000000000000000000000000000000000815260040160405180910390fd5b565b60008082905060038151108061314a575060208151115b1561315957600091505061326f565b60005b815181101561326857600082828151811061317a57613179614ac7565b5b602001015160f81c60f81b9050603060f81b817effffffffffffffffffffffffffffffffffffffffffffffffffffffffffffff1916101580156131e35750603960f81b817effffffffffffffffffffffffffffffffffffffffffffffffffffffffffffff191611155b1580156132495750606160f81b817effffffffffffffffffffffffffffffffffffffffffffffffffffffffffffff1916101580156132475750607a60f81b817effffffffffffffffffffffffffffffffffffffffffffffffffffffffffffff191611155b155b1561325a576000935050505061326f565b50808060010191505061315c565b5060019150505b919050565b606060405180602001604052806000815250905090565b606061329682612060565b5060006132a1613274565b905060008151116132c157604051806020016040528060008152506132ec565b806132cb846138f6565b6040516020016132dc9291906152cf565b6040516020818303038152906040525b915050919050565b60007f80ac58cd000000000000000000000000000000000000000000000000000000007bffffffffffffffffffffffffffffffffffffffffffffffffffffffff1916827bffffffffffffffffffffffffffffffffffffffffffffffffffffffff191614806133bf57507f5b5e139f000000000000000000000000000000000000000000000000000000007bffffffffffffffffffffffffffffffffffffffffffffffffffffffff1916827bffffffffffffffffffffffffffffffffffffffffffffffffffffffff1916145b806133cf57506133ce826139c4565b5b9050919050565b6000806133e284612dd4565b9050600073ffffffffffffffffffffffffffffffffffffffff168373ffffffffffffffffffffffffffffffffffffffff161461342457613423818486613a2e565b5b600073ffffffffffffffffffffffffffffffffffffffff168173ffffffffffffffffffffffffffffffffffffffff16146134b557613466600085600080612e11565b6001600360008373ffffffffffffffffffffffffffffffffffffffff1673ffffffffffffffffffffffffffffffffffffffff168152602001908152602001600020600082825403925050819055505b600073ffffffffffffffffffffffffffffffffffffffff168573ffffffffffffffffffffffffffffffffffffffff1614613538576001600360008773ffffffffffffffffffffffffffffffffffffffff1673ffffffffffffffffffffffffffffffffffffffff168152602001908152602001600020600082825401925050819055505b846002600086815260200190815260200160002060006101000a81548173ffffffffffffffffffffffffffffffffffffffff021916908373ffffffffffffffffffffffffffffffffffffffff160217905550838573ffffffffffffffffffffffffffffffffffffffff168273ffffffffffffffffffffffffffffffffffffffff167fddf252ad1be2c89b69c2b068fc378daa952ba7f163c4a11628f55a4df523b3ef60405160405180910390a4809150509392505050565b6008805490506009600083815260200190815260200160002081905550600881908060018154018082558091505060019003906000526020600020016000909190919091505550565b6000613644836114c7565b9050600060076000848152602001908152602001600020549050818114613729576000600660008673ffffffffffffffffffffffffffffffffffffffff1673ffffffffffffffffffffffffffffffffffffffff168152602001908152602001600020600084815260200190815260200160002054905080600660008773ffffffffffffffffffffffffffffffffffffffff1673ffffffffffffffffffffffffffffffffffffffff168152602001908152602001600020600084815260200190815260200160002081905550816007600083815260200190815260200160002081905550505b6007600084815260200190815260200160002060009055600660008573ffffffffffffffffffffffffffffffffffffffff1673ffffffffffffffffffffffffffffffffffffffff16815260200190815260200160002060008381526020019081526020016000206000905550505050565b600060016008805490506137ae91906152f3565b90506000600960008481526020019081526020016000205490506000600883815481106137de576137dd614ac7565b5b906000526020600020015490508060088381548110613800576137ff614ac7565b5b90600052602060002001819055508160096000838152602001908152602001600020819055506009600085815260200190815260200160002060009055600880548061384f5761384e615327565b5b6001900381819060005260206000200160009055905550505050565b60006001613878846114c7565b61388291906152f3565b905081600660008573ffffffffffffffffffffffffffffffffffffffff1673ffffffffffffffffffffffffffffffffffffffff168152602001908152602001600020600083815260200190815260200160002081905550806007600084815260200190815260200160002081905550505050565b60606000600161390584613af2565b01905060008167ffffffffffffffff811115613924576139236141c1565b5b6040519080825280601f01601f1916602001820160405280156139565781602001600182028036833780820191505090505b509050600082602001820190505b6001156139b9578080600190039150507f3031323334353637383961626364656600000000000000000000000000000000600a86061a8153600a85816139ad576139ac615356565b5b04945060008503613964575b819350505050919050565b60007f01ffc9a7000000000000000000000000000000000000000000000000000000007bffffffffffffffffffffffffffffffffffffffffffffffffffffffff1916827bffffffffffffffffffffffffffffffffffffffffffffffffffffffff1916149050919050565b613a39838383613c45565b613aed57600073ffffffffffffffffffffffffffffffffffffffff168373ffffffffffffffffffffffffffffffffffffffff1603613aae57806040517f7e273289000000000000000000000000000000000000000000000000000000008152600401613aa59190613fc1565b60405180910390fd5b81816040517f177e802f000000000000000000000000000000000000000000000000000000008152600401613ae4929190614a32565b60405180910390fd5b505050565b600080600090507a184f03e93ff9f4daa797ed6e38ed64bf6a1f0100000000000000008310613b50577a184f03e93ff9f4daa797ed6e38ed64bf6a1f0100000000000000008381613b4657613b45615356565b5b0492506040810190505b6d04ee2d6d415b85acef81000000008310613b8d576d04ee2d6d415b85acef81000000008381613b8357613b82615356565b5b0492506020810190505b662386f26fc100008310613bbc57662386f26fc100008381613bb257613bb1615356565b5b0492506010810190505b6305f5e1008310613be5576305f5e1008381613bdb57613bda615356565b5b0492506008810190505b6127108310613c0a576127108381613c0057613bff615356565b5b0492506004810190505b60648310613c2d5760648381613c2357613c22615356565b5b0492506002810190505b600a8310613c3c576001810190505b80915050919050565b60008073ffffffffffffffffffffffffffffffffffffffff168373ffffffffffffffffffffffffffffffffffffffff1614158015613cfd57508273ffffffffffffffffffffffffffffffffffffffff168473ffffffffffffffffffffffffffffffffffffffff161480613cbe5750613cbd8484611d9b565b5b80613cfc57508273ffffffffffffffffffffffffffffffffffffffff16613ce4836120e8565b73ffffffffffffffffffffffffffffffffffffffff16145b5b90509392505050565b6000604051905090565b600080fd5b600080fd5b60007fffffffff0000000000000000000000000000000000000000000000000000000082169050919050565b613d4f81613d1a565b8114613d5a57600080fd5b50565b600081359050613d6c81613d46565b92915050565b600060208284031215613d8857613d87613d10565b5b6000613d9684828501613d5d565b91505092915050565b60008115159050919050565b613db481613d9f565b82525050565b6000602082019050613dcf6000830184613dab565b92915050565b600081519050919050565b600082825260208201905092915050565b60005b83811015613e0f578082015181840152602081019050613df4565b60008484015250505050565b6000601f19601f8301169050919050565b6000613e3782613dd5565b613e418185613de0565b9350613e51818560208601613df1565b613e5a81613e1b565b840191505092915050565b60006020820190508181036000830152613e7f8184613e2c565b905092915050565b6000819050919050565b613e9a81613e87565b8114613ea557600080fd5b50565b600081359050613eb781613e91565b92915050565b600060208284031215613ed357613ed2613d10565b5b6000613ee184828501613ea8565b91505092915050565b600073ffffffffffffffffffffffffffffffffffffffff82169050919050565b6000613f1582613eea565b9050919050565b613f2581613f0a565b82525050565b6000602082019050613f406000830184613f1c565b92915050565b613f4f81613f0a565b8114613f5a57600080fd5b50565b600081359050613f6c81613f46565b92915050565b60008060408385031215613f8957613f88613d10565b5b6000613f9785828601613f5d565b9250506020613fa885828601613ea8565b9150509250929050565b613fbb81613e87565b82525050565b6000602082019050613fd66000830184613fb2565b92915050565b60008060408385031215613ff357613ff2613d10565b5b600061400185828601613ea8565b925050602061401285828601613ea8565b9150509250929050565b60006020828403121561403257614031613d10565b5b600061404084828501613f5d565b91505092915050565b600060608201905061405e6000830186613fb2565b81810360208301526140708185613e2c565b905061407f6040830184613fb2565b949350505050565b6000806000606084860312156140a05761409f613d10565b5b60006140ae86828701613f5d565b93505060206140bf86828701613f5d565b92505060406140d086828701613ea8565b9150509250925092565b600060408201905081810360008301526140f48185613e2c565b90506141036020830184613fb2565b9392505050565b600080fd5b600080fd5b600080fd5b60008083601f84011261412f5761412e61410a565b5b8235905067ffffffffffffffff81111561414c5761414b61410f565b5b60208301915083602082028301111561416857614167614114565b5b9250929050565b6000806020838503121561418657614185613d10565b5b600083013567ffffffffffffffff8111156141a4576141a3613d15565b5b6141b085828601614119565b92509250509250929050565b600080fd5b7f4e487b7100000000000000000000000000000000000000000000000000000000600052604160045260246000fd5b6141f982613e1b565b810181811067ffffffffffffffff82111715614218576142176141c1565b5b80604052505050565b600061422b613d06565b905061423782826141f0565b919050565b600067ffffffffffffffff821115614257576142566141c1565b5b61426082613e1b565b9050602081019050919050565b82818337600083830152505050565b600061428f61428a8461423c565b614221565b9050828152602081018484840111156142ab576142aa6141bc565b5b6142b684828561426d565b509392505050565b600082601f8301126142d3576142d261410a565b5b81356142e384826020860161427c565b91505092915050565b60006020828403121561430257614301613d10565b5b600082013567ffffffffffffffff8111156143205761431f613d15565b5b61432c848285016142be565b91505092915050565b61433e81613d9f565b811461434957600080fd5b50565b60008135905061435b81614335565b92915050565b6000806040838503121561437857614377613d10565b5b600061438685828601613f5d565b92505060206143978582860161434c565b9150509250929050565b600067ffffffffffffffff8211156143bc576143bb6141c1565b5b6143c582613e1b565b9050602081019050919050565b60006143e56143e0846143a1565b614221565b905082815260208101848484011115614401576144006141bc565b5b61440c84828561426d565b509392505050565b600082601f8301126144295761442861410a565b5b81356144398482602086016143d2565b91505092915050565b6000806000806080858703121561445c5761445b613d10565b5b600061446a87828801613f5d565b945050602061447b87828801613f5d565b935050604061448c87828801613ea8565b925050606085013567ffffffffffffffff8111156144ad576144ac613d15565b5b6144b987828801614414565b91505092959194509250565b600080600080608085870312156144df576144de613d10565b5b600085013567ffffffffffffffff8111156144fd576144fc613d15565b5b614509878288016142be565b945050602061451a87828801613ea8565b935050604085013567ffffffffffffffff81111561453b5761453a613d15565b5b614547878288016142be565b92505060606145588782880161434c565b91505092959194509250565b600080600080600060a086880312156145805761457f613d10565b5b600061458e88828901613f5d565b955050602086013567ffffffffffffffff8111156145af576145ae613d15565b5b6145bb888289016142be565b94505060406145cc88828901613ea8565b935050606086013567ffffffffffffffff8111156145ed576145ec613d15565b5b6145f9888289016142be565b925050608061460a8882890161434c565b9150509295509295909350565b6000806040838503121561462e5761462d613d10565b5b600061463c85828601613f5d565b925050602061464d85828601613f5d565b9150509250929050565b7f4e487b7100000000000000000000000000000000000000000000000000000000600052602260045260246000fd5b6000600282049050600182168061469e57607f821691505b6020821081036146b1576146b0614657565b5b50919050565b7f596f7520617265206e6f7420746865206f776e65720000000000000000000000600082015250565b60006146ed601583613de0565b91506146f8826146b7565b602082019050919050565b6000602082019050818103600083015261471c816146e0565b9050919050565b7f52656e6577616c20706572696f64206d757374206265206265747765656e203160008201527f20616e6420313020796561727300000000000000000000000000000000000000602082015250565b600061477f602d83613de0565b915061478a82614723565b604082019050919050565b600060208201905081810360008301526147ae81614772565b9050919050565b7f4e487b7100000000000000000000000000000000000000000000000000000000600052601160045260246000fd5b60006147ef82613e87565b91506147fa83613e87565b925082820261480881613e87565b9150828204841483151761481f5761481e6147b5565b5b5092915050565b7f496e73756666696369656e74207061796d656e74000000000000000000000000600082015250565b600061485c601483613de0565b915061486782614826565b602082019050919050565b6000602082019050818103600083015261488b8161484f565b9050919050565b600061489d82613e87565b91506148a883613e87565b92508282019050808211156148c0576148bf6147b5565b5b92915050565b60008190508160005260206000209050919050565b600081546148e881614686565b6148f28186613de0565b9450600182166000811461490d576001811461492357614956565b60ff198316865281151560200286019350614956565b61492c856148c6565b60005b8381101561494e5781548189015260018201915060208101905061492f565b808801955050505b50505092915050565b6000604082019050818103600083015261497981856148db565b90506149886020830184613fb2565b9392505050565b7f4e6f2064656661756c74206e616d652073657400000000000000000000000000600082015250565b60006149c5601383613de0565b91506149d08261498f565b602082019050919050565b600060208201905081810360008301526149f4816149b8565b9050919050565b6000606082019050614a106000830186613f1c565b614a1d6020830185613fb2565b614a2a6040830184613f1c565b949350505050565b6000604082019050614a476000830185613f1c565b614a546020830184613fb2565b9392505050565b7f596f7520646f6e2774206f776e2074686973206e616d65000000000000000000600082015250565b6000614a91601783613de0565b9150614a9c82614a5b565b602082019050919050565b60006020820190508181036000830152614ac081614a84565b9050919050565b7f4e487b7100000000000000000000000000000000000000000000000000000000600052603260045260246000fd5b600081905092915050565b6000614b0c82613dd5565b614b168185614af6565b9350614b26818560208601613df1565b80840191505092915050565b6000614b3e8284614b01565b915081905092915050565b7f4e616d65206e6f74207265676973746572656400000000000000000000000000600082015250565b6000614b7f601383613de0565b9150614b8a82614b49565b602082019050919050565b60006020820190508181036000830152614bae81614b72565b9050919050565b7f4e6f74206f6e20616c6c6f776c69737400000000000000000000000000000000600082015250565b6000614beb601083613de0565b9150614bf682614bb5565b602082019050919050565b60006020820190508181036000830152614c1a81614bde565b9050919050565b7f4561726c79206d696e74206c696d697420726561636865640000000000000000600082015250565b6000614c57601883613de0565b9150614c6282614c21565b602082019050919050565b60006020820190508181036000830152614c8681614c4a565b9050919050565b6000614c9882613e87565b91507fffffffffffffffffffffffffffffffffffffffffffffffffffffffffffffffff8203614cca57614cc96147b5565b5b600182019050919050565b7f496e76616c696420726563697069656e74206164647265737300000000000000600082015250565b6000614d0b601983613de0565b9150614d1682614cd5565b602082019050919050565b60006020820190508181036000830152614d3a81614cfe565b9050919050565b7f526567697374726174696f6e20706572696f64206d757374206265206265747760008201527f65656e203120616e642031302079656172730000000000000000000000000000602082015250565b6000614d9d603283613de0565b9150614da882614d41565b604082019050919050565b60006020820190508181036000830152614dcc81614d90565b9050919050565b7f4e616d652069732063757272656e746c792072656e7465640000000000000000600082015250565b6000614e09601883613de0565b9150614e1482614dd3565b602082019050919050565b60006020820190508181036000830152614e3881614dfc565b9050919050565b60006020601f8301049050919050565b600082821b905092915050565b600060088302614e8c7fffffffffffffffffffffffffffffffffffffffffffffffffffffffffffffffff82614e4f565b614e968683614e4f565b95508019841693508086168417925050509392505050565b6000819050919050565b6000614ed3614ece614ec984613e87565b614eae565b613e87565b9050919050565b6000819050919050565b614eed83614eb8565b614f01614ef982614eda565b848454614e5c565b825550505050565b600090565b614f16614f09565b614f21818484614ee4565b505050565b5b81811015614f4557614f3a600082614f0e565b600181019050614f27565b5050565b601f821115614f8a57614f5b816148c6565b614f6484614e3f565b81016020851015614f73578190505b614f87614f7f85614e3f565b830182614f26565b50505b505050565b600082821c905092915050565b6000614fad60001984600802614f8f565b1980831691505092915050565b6000614fc68383614f9c565b9150826002028217905092915050565b614fdf82613dd5565b67ffffffffffffffff811115614ff857614ff76141c1565b5b6150028254614686565b61500d828285614f49565b600060209050601f831160018114615040576000841561502e578287015190505b6150388582614fba565b8655506150a0565b601f19841661504e866148c6565b60005b8281101561507657848901518255600182019150602085019450602081019050615051565b86831015615093578489015161508f601f891682614f9c565b8355505b6001600288020188555050505b505050505050565b7f4c696d6974206d7573742062652067726561746572207468616e207a65726f00600082015250565b60006150de601f83613de0565b91506150e9826150a8565b602082019050919050565b6000602082019050818103600083015261510d816150d1565b9050919050565b600081519050919050565b600082825260208201905092915050565b600061513b82615114565b615145818561511f565b9350615155818560208601613df1565b61515e81613e1b565b840191505092915050565b600060808201905061517e6000830187613f1c565b61518b6020830186613f1c565b6151986040830185613fb2565b81810360608301526151aa8184615130565b905095945050505050565b6000815190506151c481613d46565b92915050565b6000602082840312156151e0576151df613d10565b5b60006151ee848285016151b5565b91505092915050565b7f496e76616c6964206e616d6520666f726d617400000000000000000000000000600082015250565b600061522d601383613de0565b9150615238826151f7565b602082019050919050565b6000602082019050818103600083015261525c81615220565b9050919050565b7f4e616d652069732063757272656e746c79206f776e6564000000000000000000600082015250565b6000615299601783613de0565b91506152a482615263565b602082019050919050565b600060208201905081810360008301526152c88161528c565b9050919050565b60006152db8285614b01565b91506152e78284614b01565b91508190509392505050565b60006152fe82613e87565b915061530983613e87565b9250828203905081811115615321576153206147b5565b5b92915050565b7f4e487b7100000000000000000000000000000000000000000000000000000000600052603160045260246000fd5b7f4e487b7100000000000000000000000000000000000000000000000000000000600052601260045260246000fdfea2646970667358221220fe69d0f1b0b26e82367b54cbd23cf9b4d8eafd4fd79b1a3763a5738677e0db3664736f6c63430008180033",
  "linkReferences": {},
  "deployedLinkReferences": {}
}